{
  "contractName": "Hotel",
  "abi": [
    {
      "constant": true,
      "inputs": [],
      "name": "index",
      "outputs": [
        {
          "name": "",
          "type": "address"
        }
      ],
      "payable": false,
      "stateMutability": "view",
      "type": "function"
    },
    {
      "constant": true,
      "inputs": [],
      "name": "created",
      "outputs": [
        {
          "name": "",
          "type": "uint256"
        }
      ],
      "payable": false,
      "stateMutability": "view",
      "type": "function"
    },
    {
      "constant": true,
      "inputs": [],
      "name": "manager",
      "outputs": [
        {
          "name": "",
          "type": "address"
        }
      ],
      "payable": false,
      "stateMutability": "view",
      "type": "function"
    },
    {
      "constant": true,
      "inputs": [],
      "name": "version",
      "outputs": [
        {
          "name": "",
          "type": "bytes32"
        }
      ],
      "payable": false,
      "stateMutability": "view",
      "type": "function"
    },
    {
      "constant": false,
      "inputs": [],
      "name": "destroy",
      "outputs": [],
      "payable": false,
      "stateMutability": "nonpayable",
      "type": "function"
    },
    {
      "constant": true,
      "inputs": [],
      "name": "dataUri",
      "outputs": [
        {
          "name": "",
          "type": "string"
        }
      ],
      "payable": false,
      "stateMutability": "view",
      "type": "function"
    },
    {
      "constant": false,
      "inputs": [
        {
          "name": "_dataUri",
          "type": "string"
        }
      ],
      "name": "editInfo",
      "outputs": [],
      "payable": false,
      "stateMutability": "nonpayable",
      "type": "function"
    },
    {
      "constant": false,
      "inputs": [
        {
          "name": "_newManager",
          "type": "address"
        }
      ],
      "name": "changeManager",
      "outputs": [],
      "payable": false,
      "stateMutability": "nonpayable",
      "type": "function"
    },
    {
      "constant": true,
      "inputs": [],
      "name": "contractType",
      "outputs": [
        {
          "name": "",
          "type": "bytes32"
        }
      ],
      "payable": false,
      "stateMutability": "view",
      "type": "function"
    },
    {
      "inputs": [
        {
          "name": "_manager",
          "type": "address"
        },
        {
          "name": "_dataUri",
          "type": "string"
        },
        {
          "name": "_index",
          "type": "address"
        }
      ],
      "payable": false,
      "stateMutability": "nonpayable",
      "type": "constructor"
    }
  ],
  "bytecode": "0x60806040527f302e322e3400000000000000000000000000000000000000000000000000000060009081557f686f74656c00000000000000000000000000000000000000000000000000000060065560075534801561005d57600080fd5b506040516106e73803806106e7833981016040908152815160208301519183015190929190910190600160a060020a038316151561009a57600080fd5b600160a060020a03811615156100af57600080fd5b815115156100bc57600080fd5b60028054600160a060020a03808616600160a060020a031992831617909255600580549284169290911691909117905581516100ff90600390602085019061010d565b505043600455506101a89050565b828054600181600116156101000203166002900490600052602060002090601f016020900481019282601f1061014e57805160ff191683800117855561017b565b8280016001018555821561017b579182015b8281111561017b578251825591602001919060010190610160565b5061018792915061018b565b5090565b6101a591905b808211156101875760008155600101610191565b90565b610530806101b76000396000f3006080604052600436106100985763ffffffff7c01000000000000000000000000000000000000000000000000000000006000350416632986c0e5811461009d578063325a19f1146100db578063481c6a751461010257806354fd4d501461011757806383197ef01461012c5780638a9b29eb146101435780639d9b5342146101cd578063a3fbbaae14610226578063cb2ef6f714610254575b600080fd5b3480156100a957600080fd5b506100b2610269565b6040805173ffffffffffffffffffffffffffffffffffffffff9092168252519081900360200190f35b3480156100e757600080fd5b506100f0610285565b60408051918252519081900360200190f35b34801561010e57600080fd5b506100b261028b565b34801561012357600080fd5b506100f06102a7565b34801561013857600080fd5b506101416102ad565b005b34801561014f57600080fd5b506101586102db565b6040805160208082528351818301528351919283929083019185019080838360005b8381101561019257818101518382015260200161017a565b50505050905090810190601f1680156101bf5780820380516001836020036101000a031916815260200191505b509250505060405180910390f35b3480156101d957600080fd5b506040805160206004803580820135601f81018490048402850184019095528484526101419436949293602493928401919081908401838280828437509497506103699650505050505050565b34801561023257600080fd5b5061014173ffffffffffffffffffffffffffffffffffffffff60043516610399565b34801561026057600080fd5b506100f06103c6565b60055473ffffffffffffffffffffffffffffffffffffffff1681565b60045481565b60025473ffffffffffffffffffffffffffffffffffffffff1681565b60005481565b60055473ffffffffffffffffffffffffffffffffffffffff1633146102d157600080fd5b6102d96103cc565b565b6003805460408051602060026001851615610100026000190190941693909304601f810184900484028201840190925281815292918301828280156103615780601f1061033657610100808354040283529160200191610361565b820191906000526020600020905b81548152906001019060200180831161034457829003601f168201915b505050505081565b60055473ffffffffffffffffffffffffffffffffffffffff16331461038d57600080fd5b610396816103e7565b50565b60055473ffffffffffffffffffffffffffffffffffffffff1633146103bd57600080fd5b6103968161040b565b60065481565b60025473ffffffffffffffffffffffffffffffffffffffff16ff5b805115156103f457600080fd5b8051610407906003906020840190610469565b5050565b73ffffffffffffffffffffffffffffffffffffffff8116151561042d57600080fd5b6002805473ffffffffffffffffffffffffffffffffffffffff191673ffffffffffffffffffffffffffffffffffffffff92909216919091179055565b828054600181600116156101000203166002900490600052602060002090601f016020900481019282601f106104aa57805160ff19168380011785556104d7565b828001600101855582156104d7579182015b828111156104d75782518255916020019190600101906104bc565b506104e39291506104e7565b5090565b61050191905b808211156104e357600081556001016104ed565b905600a165627a7a72305820c26f1d55e52f0d8d864bc646b56b2f671daf7aecb8f28395581ab6e8cf30ac780029",
  "source": "pragma solidity ^0.4.24;\n\ncontract AbstractBaseContract {\n\n  // The hex-encoded version, follows the semantic standard MAJOR.MINOR.PATCH-EXTENSION\n  // It should always match the version in package.json.\n  bytes32 public version = bytes32(\"0.2.4\");\n\n  // The hex-encoded type of the contract, in all lowercase letters without any spaces.\n  // It has to be defined in each contract that uses this interface.\n  bytes32 public contractType;\n\n}\n\ncontract AbstractHotel is AbstractBaseContract {\n\n  // Who owns this Hotel and can manage it.\n  address public manager;\n\n  // Arbitrary locator of the off-chain stored hotel data\n  // This might be an HTTPS resource, IPFS hash, Swarm address...\n  // This is intentionally generic.\n  string public dataUri;\n  // Number of block when the Hotel was created\n  uint public created;\n\n  // WTIndex address\n  address public index;\n\n  /**\n   * Allows calling such methods only when msg.sender is equal\n   * to previously set index propert.y\n   */\n  modifier onlyFromIndex() {\n    require(msg.sender == index);\n    _;\n  }\n\n\n  function _editInfoImpl(string _dataUri) internal;\n  function _destroyImpl() internal;\n  function _changeManagerImpl(address _newManager) internal;\n\n  /**\n   * @dev `editInfo` Allows owner to change hotel's dataUri.\n   * @param  _dataUri New dataUri pointer of this hotel\n   */\n  function editInfo(string _dataUri) onlyFromIndex public {\n    _editInfoImpl(_dataUri);\n  }\n\n  /**\n   * @dev `destroy` allows the owner to delete the Hotel\n   */\n  function destroy() onlyFromIndex public {\n    _destroyImpl();\n  }\n\n  /**\n   * @dev Allows owner to change hotel manager.\n   * @param _newManager New manager's address\n   */\n  function changeManager(address _newManager) onlyFromIndex public {\n    _changeManagerImpl(_newManager);\n  }\n}\n  \ncontract Hotel is AbstractHotel {\n\n  bytes32 public contractType = bytes32(\"hotel\");\n\n  /**\n   * @dev Constructor.\n   * @param _manager address of hotel owner\n   * @param _dataUri pointer to hotel data\n   * @param _index originating WTIndex address\n   */\n   \n    uint RoomSupply = 0;\n\n   \n  constructor(address _manager, string _dataUri, address _index) public {\n    require(_manager != address(0));\n    require(_index != address(0));\n    require(bytes(_dataUri).length != 0);\n    manager = _manager;\n    index = _index;\n    dataUri = _dataUri;\n    created = block.number;\n  }\n  \n  function _editInfoImpl(string _dataUri) internal {\n    require(bytes(_dataUri).length != 0);\n    dataUri = _dataUri;\n  }\n\n  function _destroyImpl() internal {\n    selfdestruct(manager);\n  }\n\n  function _changeManagerImpl(address _newManager) internal {\n    require(_newManager != address(0));\n    manager = _newManager;\n  }\n\n}\n\ncontract Ownable {\n  address private _owner;\n\n  event OwnershipTransferred(\n    address indexed previousOwner,\n    address indexed newOwner\n  );\n\n  /**\n   * @dev The Ownable constructor sets the original `owner` of the contract to the sender\n   * account.\n   */\n  constructor() internal {\n    _owner = msg.sender;\n    emit OwnershipTransferred(address(0), _owner);\n  }\n\n  /**\n   * @return the address of the owner.\n   */\n  function owner() public view returns(address) {\n    return _owner;\n  }\n\n  /**\n   * @dev Throws if called by any account other than the owner.\n   */\n  modifier onlyOwner() {\n    require(isOwner());\n    _;\n  }\n\n  /**\n   * @return true if `msg.sender` is the owner of the contract.\n   */\n  function isOwner() public view returns(bool) {\n    return msg.sender == _owner;\n  }\n\n  /**\n   * @dev Allows the current owner to relinquish control of the contract.\n   * @notice Renouncing to ownership will leave the contract without an owner.\n   * It will not be possible to call the functions with the `onlyOwner`\n   * modifier anymore.\n   */\n  function renounceOwnership() public onlyOwner {\n    emit OwnershipTransferred(_owner, address(0));\n    _owner = address(0);\n  }\n\n  /**\n   * @dev Allows the current owner to transfer control of the contract to a newOwner.\n   * @param newOwner The address to transfer ownership to.\n   */\n  function transferOwnership(address newOwner) public onlyOwner {\n    _transferOwnership(newOwner);\n  }\n\n  /**\n   * @dev Transfers control of the contract to a newOwner.\n   * @param newOwner The address to transfer ownership to.\n   */\n  function _transferOwnership(address newOwner) internal {\n    require(newOwner != address(0));\n    emit OwnershipTransferred(_owner, newOwner);\n    _owner = newOwner;\n  }\n}\n\ncontract AbstractWTIndex is Ownable, AbstractBaseContract {\n  address[] public hotels;\n  mapping(address => uint) public hotelsIndex;\n  mapping(address => address[]) public hotelsByManager;\n  mapping(address => uint) public hotelsByManagerIndex;\n  address public LifToken;\n\n  function registerHotel(string dataUri) returns(address);\n  function deleteHotel(address hotel) external;\n  function callHotel(address hotel, bytes data) external;\n  function transferHotel(address hotel, address newManager) external;\n  function getHotelsLength() view public returns (uint);\n  function getHotels() view public returns (address[]);\n  function getHotelsByManager(address manager) view public returns (address[]);\n\n  event HotelRegistered(address hotel, uint managerIndex, uint allIndex);\n  event HotelDeleted(address hotel, uint managerIndex, uint allIndex);\n  event HotelCalled(address hotel);\n  event HotelTransferred(address hotel, address previousManager, address newManager);\n}\n\ncontract WTIndex is AbstractWTIndex {\n\n  bytes32 public contractType = bytes32(\"wtindex\");\n\n  // Array of addresses of `Hotel` contracts\n  address[] public hotels;\n  // Mapping of hotels position in the general hotel index\n  mapping(address => uint) public hotelsIndex;\n\n  // Mapping of the hotels indexed by manager's address\n  mapping(address => address[]) public hotelsByManager;\n  // Mapping of hotels position in the manager's indexed hotel index\n  mapping(address => uint) public hotelsByManagerIndex;\n\n  // Address of the LifToken contract\n  address public LifToken;\n\n  /**\n   * @dev Event triggered every time hotel is registered\n   */\n  event HotelRegistered(address hotel, uint managerIndex, uint allIndex);\n  /**\n   * @dev Event triggered every time hotel is deleted\n   */\n  event HotelDeleted(address hotel, uint managerIndex, uint allIndex);\n  /**\n   * @dev Event triggered every time hotel is called\n   */\n  event HotelCalled(address hotel);\n\n  /**\n   * @dev Event triggered every time a hotel changes a manager.\n   */\n  event HotelTransferred(address hotel, address previousManager, address newManager);\n\n  /**\n   * @dev Constructor. Creates the `WTIndex` contract\n   */\n\tconstructor() public {\n\t\thotels.length ++;\n\t}\n\n  /**\n   * @dev `setLifToken` allows the owner of the contract to change the\n   * address of the LifToken contract\n   * @param _LifToken The new contract address\n   */\n  function setLifToken(address _LifToken) onlyOwner public {\n    LifToken = _LifToken;\n  }\n\n  /**\n   * @dev `registerHotel` Register new hotel in the index.\n   * Emits `HotelRegistered` on success.\n   * @param  dataUri Hotel's data pointer\n   */\n  function registerHotel(string dataUri) returns (address hotelAddress) {\n    Hotel newHotel = new Hotel(msg.sender, dataUri, this);\n    hotelsIndex[newHotel] = hotels.length;\n    hotels.push(newHotel);\n    hotelsByManagerIndex[newHotel] = hotelsByManager[msg.sender].length;\n    hotelsByManager[msg.sender].push(newHotel);\n    emit HotelRegistered(newHotel, hotelsByManagerIndex[newHotel], hotelsIndex[newHotel]);\n    return newHotel;\n\t}\n\n  /**\n   * @dev `deleteHotel` Allows a manager to delete a hotel, i. e. call destroy\n   * on the target Hotel contract. Emits `HotelDeleted` on success.\n   * @param  hotel  Hotel's address\n   */\n  function deleteHotel(address hotel) external {\n    // Ensure hotel address is valid\n    require(hotel != address(0));\n    // Ensure we know about the hotel at all\n    require(hotelsIndex[hotel] != uint(0));\n    // Ensure that the caller is the hotel's rightful owner\n    // There may actually be a hotel on index zero, that's why we use a double check\n    require(hotelsByManager[msg.sender][hotelsByManagerIndex[hotel]] != address(0));\n\n    Hotel hotelInstance = Hotel(hotel);\n    // Ensure we are calling only our own hotels\n    require(hotelInstance.index() == address(this));\n    hotelInstance.destroy();\n    \n    uint index = hotelsByManagerIndex[hotel];\n    uint allIndex = hotelsIndex[hotel];\n    delete hotels[allIndex];\n    delete hotelsIndex[hotel];\n    delete hotelsByManager[msg.sender][index];\n    delete hotelsByManagerIndex[hotel];\n    emit HotelDeleted(hotel, index, allIndex);\n\t}\n\n  /**\n   * @dev `callHotel` Call hotel in the index, the hotel can only\n   * be called by its manager. Effectively proxies a hotel call.\n   * Emits HotelCalled on success.\n   * @param  hotel Hotel's address\n   * @param  data Encoded method call to be done on Hotel contract.\n   */\n\tfunction callHotel(address hotel, bytes data) external {\n    // Ensure hotel address is valid\n    require(hotel != address(0));\n    // Ensure we know about the hotel at all\n    require(hotelsIndex[hotel] != uint(0));\n    // Ensure that the caller is the hotel's rightful owner\n    require(hotelsByManager[msg.sender][hotelsByManagerIndex[hotel]] != address(0));\n    Hotel hotelInstance = Hotel(hotel);\n    // Ensure we are calling only our own hotels\n    require(hotelInstance.index() == address(this));\n    require(hotel.call(data));\n    emit HotelCalled(hotel);\n\t}\n\n  function transferHotel(address hotel, address newManager) external {\n    // Ensure hotel address is valid\n    require(hotel != address(0));\n    // Ensure new manager is valid\n    require(newManager != address(0));\n    // Ensure we know about the hotel at all\n    require(hotelsIndex[hotel] != uint(0));\n    // Ensure that the caller is the hotel's rightful owner\n    // There may actually be a hotel on index zero, that's why we use a double check\n    require(hotelsByManager[msg.sender][hotelsByManagerIndex[hotel]] != address(0));\n\n    Hotel hotelInstance = Hotel(hotel);\n    // Ensure we are calling only our own hotels\n    require(hotelInstance.index() == address(this));\n    // Change ownership in the Hotel contract\n    hotelInstance.changeManager(newManager);\n    \n    // Detach from the old manager ...\n    uint index = hotelsByManagerIndex[hotel];\n    delete hotelsByManager[msg.sender][index];\n    // ... and attach to new manager\n    hotelsByManagerIndex[hotel] = hotelsByManager[newManager].length;\n    hotelsByManager[newManager].push(hotel);\n    emit HotelTransferred(hotel, msg.sender, newManager);\n  }\n\n  /**\n   * @dev `getHotelsLength` get the length of the `hotels` array\n   * @return {\" \": \"Length of the hotels array. Might contain zero addresses.\"}\n   */\n  function getHotelsLength() view public returns (uint) {\n    return hotels.length;\n  }\n\n  /**\n   * @dev `getHotels` get `hotels` array\n   * @return {\" \": \"Array of hotel addresses. Might contain zero addresses.\"}\n   */\n  function getHotels() view public returns (address[]) {\n    return hotels;\n  }\n\n  /**\n   * @dev `getHotelsByManager` get all the hotels belonging to one manager\n   * @param  manager Manager address\n   * @return {\" \": \"Array of hotels belonging to one manager. Might contain zero addresses.\"}\n   */\n\tfunction getHotelsByManager(address manager) view public returns (address[]) {\n\t\treturn hotelsByManager[manager];\n\t}\n\n}",
  "sourcePath": "/Users/dennisonbertram/Documents/StatusHack3/contracts/WTIndex.sol",
  "compiler": {
    "name": "solc",
    "version": "0.4.24+commit.e67f0147.Emscripten.clang"
  },
  "schemaVersion": "2.0.1",
  "updatedAt": "2018-10-26T20:56:01.996Z"
}