{
  "contractName": "Hotel",
  "abi": [
    {
      "constant": true,
      "inputs": [],
      "name": "index",
      "outputs": [
        {
          "name": "",
          "type": "address"
        }
      ],
      "payable": false,
      "stateMutability": "view",
      "type": "function"
    },
    {
      "constant": true,
      "inputs": [],
      "name": "created",
      "outputs": [
        {
          "name": "",
          "type": "uint256"
        }
      ],
      "payable": false,
      "stateMutability": "view",
      "type": "function"
    },
    {
      "constant": true,
      "inputs": [],
      "name": "manager",
      "outputs": [
        {
          "name": "",
          "type": "address"
        }
      ],
      "payable": false,
      "stateMutability": "view",
      "type": "function"
    },
    {
      "constant": true,
      "inputs": [],
      "name": "version",
      "outputs": [
        {
          "name": "",
          "type": "bytes32"
        }
      ],
      "payable": false,
      "stateMutability": "view",
      "type": "function"
    },
    {
      "constant": false,
      "inputs": [],
      "name": "destroy",
      "outputs": [],
      "payable": false,
      "stateMutability": "nonpayable",
      "type": "function"
    },
    {
      "constant": true,
      "inputs": [],
      "name": "dataUri",
      "outputs": [
        {
          "name": "",
          "type": "string"
        }
      ],
      "payable": false,
      "stateMutability": "view",
      "type": "function"
    },
    {
      "constant": false,
      "inputs": [
        {
          "name": "_dataUri",
          "type": "string"
        }
      ],
      "name": "editInfo",
      "outputs": [],
      "payable": false,
      "stateMutability": "nonpayable",
      "type": "function"
    },
    {
      "constant": false,
      "inputs": [
        {
          "name": "_newManager",
          "type": "address"
        }
      ],
      "name": "changeManager",
      "outputs": [],
      "payable": false,
      "stateMutability": "nonpayable",
      "type": "function"
    },
    {
      "constant": true,
      "inputs": [],
      "name": "ServiceProvider",
      "outputs": [
        {
          "name": "",
          "type": "address"
        }
      ],
      "payable": false,
      "stateMutability": "view",
      "type": "function"
    },
    {
      "constant": true,
      "inputs": [],
      "name": "contractType",
      "outputs": [
        {
          "name": "",
          "type": "bytes32"
        }
      ],
      "payable": false,
      "stateMutability": "view",
      "type": "function"
    },
    {
      "inputs": [
        {
          "name": "_manager",
          "type": "address"
        },
        {
          "name": "_dataUri",
          "type": "string"
        },
        {
          "name": "_index",
          "type": "address"
        },
        {
          "name": "_Price",
          "type": "uint256"
        },
        {
          "name": "_ServiceProvider",
          "type": "address"
        }
      ],
      "payable": false,
      "stateMutability": "nonpayable",
      "type": "constructor"
    },
    {
      "constant": false,
      "inputs": [
        {
          "name": "amount",
          "type": "uint256"
        }
      ],
      "name": "_donate",
      "outputs": [],
      "payable": true,
      "stateMutability": "payable",
      "type": "function"
    },
    {
      "constant": true,
      "inputs": [],
      "name": "_checkDonationBalance",
      "outputs": [
        {
          "name": "",
          "type": "uint256"
        }
      ],
      "payable": false,
      "stateMutability": "view",
      "type": "function"
    },
    {
      "constant": true,
      "inputs": [],
      "name": "_checkAmountLeftToDonate",
      "outputs": [
        {
          "name": "",
          "type": "uint256"
        }
      ],
      "payable": false,
      "stateMutability": "view",
      "type": "function"
    },
    {
      "constant": false,
      "inputs": [],
      "name": "_releaseDonations",
      "outputs": [],
      "payable": false,
      "stateMutability": "nonpayable",
      "type": "function"
    }
  ],
  "bytecode": "0x60806040527f302e322e3400000000000000000000000000000000000000000000000000000060009081557f686f74656c0000000000000000000000000000000000000000000000000000006006556007819055600881905560095534801561006757600080fd5b506040516108dc3803806108dc833981016040908152815160208301519183015160608401516080850151929493909301929091600160a060020a03851615156100b057600080fd5b600160a060020a03831615156100c557600080fd5b835115156100d257600080fd5b6008829055600b8054600160a060020a03808416600160a060020a0319928316179092556002805488841690831617905560058054928616929091169190911790558351610127906003906020870190610137565b505043600455506101d292505050565b828054600181600116156101000203166002900490600052602060002090601f016020900481019282601f1061017857805160ff19168380011785556101a5565b828001600101855582156101a5579182015b828111156101a557825182559160200191906001019061018a565b506101b19291506101b5565b5090565b6101cf91905b808211156101b157600081556001016101bb565b90565b6106fb806101e16000396000f3006080604052600436106100cf5763ffffffff7c01000000000000000000000000000000000000000000000000000000006000350416630adbe3ff81146100d45780632986c0e5146100fb5780632e426f6814610139578063325a19f114610150578063481c6a751461016557806354fd4d501461017a57806383197ef01461018f5780638a9b29eb146101a45780639d9b53421461022e578063a3fbbaae14610287578063b27e29bf146102b5578063b64a124e146102ca578063cb2ef6f7146102d5578063cfbea93e146102ea575b600080fd5b3480156100e057600080fd5b506100e96102ff565b60408051918252519081900360200190f35b34801561010757600080fd5b50610110610305565b6040805173ffffffffffffffffffffffffffffffffffffffff9092168252519081900360200190f35b34801561014557600080fd5b5061014e610321565b005b34801561015c57600080fd5b506100e961036b565b34801561017157600080fd5b50610110610371565b34801561018657600080fd5b506100e961038d565b34801561019b57600080fd5b5061014e610393565b3480156101b057600080fd5b506101b96103c1565b6040805160208082528351818301528351919283929083019185019080838360005b838110156101f35781810151838201526020016101db565b50505050905090810190601f1680156102205780820380516001836020036101000a031916815260200191505b509250505060405180910390f35b34801561023a57600080fd5b506040805160206004803580820135601f810184900484028501840190955284845261014e94369492936024939284019190819084018382808284375094975061044f9650505050505050565b34801561029357600080fd5b5061014e73ffffffffffffffffffffffffffffffffffffffff6004351661047c565b3480156102c157600080fd5b506101106104a9565b61014e6004356104c5565b3480156102e157600080fd5b506100e9610573565b3480156102f657600080fd5b506100e9610579565b30315b90565b60055473ffffffffffffffffffffffffffffffffffffffff1681565b600b5460405173ffffffffffffffffffffffffffffffffffffffff90911690303180156108fc02916000818181858888f19350505050158015610368573d6000803e3d6000fd5b50565b60045481565b60025473ffffffffffffffffffffffffffffffffffffffff1681565b60005481565b60055473ffffffffffffffffffffffffffffffffffffffff1633146103b757600080fd5b6103bf610583565b565b6003805460408051602060026001851615610100026000190190941693909304601f810184900484028201840190925281815292918301828280156104475780601f1061041c57610100808354040283529160200191610447565b820191906000526020600020905b81548152906001019060200180831161042a57829003601f168201915b505050505081565b60055473ffffffffffffffffffffffffffffffffffffffff16331461047357600080fd5b6103688161059e565b60055473ffffffffffffffffffffffffffffffffffffffff1633146104a057600080fd5b610368816105c2565b600b5473ffffffffffffffffffffffffffffffffffffffff1681565b6104cd610620565b3381523460208201908152600a805460018101825560009190915291517fc65a7bb8d6351c1cf70c95a316cc6a92839c986682d98bc35f958f4883f9d2a86002909302928301805473ffffffffffffffffffffffffffffffffffffffff191673ffffffffffffffffffffffffffffffffffffffff909216919091179055517fc65a7bb8d6351c1cf70c95a316cc6a92839c986682d98bc35f958f4883f9d2a99091015550565b60065481565b6008543031900390565b60025473ffffffffffffffffffffffffffffffffffffffff16ff5b805115156105ab57600080fd5b80516105be906003906020840190610637565b5050565b73ffffffffffffffffffffffffffffffffffffffff811615156105e457600080fd5b6002805473ffffffffffffffffffffffffffffffffffffffff191673ffffffffffffffffffffffffffffffffffffffff92909216919091179055565b604080518082019091526000808252602082015290565b828054600181600116156101000203166002900490600052602060002090601f016020900481019282601f1061067857805160ff19168380011785556106a5565b828001600101855582156106a5579182015b828111156106a557825182559160200191906001019061068a565b506106b19291506106b5565b5090565b61030291905b808211156106b157600081556001016106bb5600a165627a7a723058202fa68876031f70205ab6f6180189676bbe856059b9dbb8fd72df81e3eef07ab30029",
  "source": "pragma solidity ^0.4.24;\n\ncontract AbstractBaseContract {\n\n  // The hex-encoded version, follows the semantic standard MAJOR.MINOR.PATCH-EXTENSION\n  // It should always match the version in package.json.\n  bytes32 public version = bytes32(\"0.2.4\");\n\n  // The hex-encoded type of the contract, in all lowercase letters without any spaces.\n  // It has to be defined in each contract that uses this interface.\n  bytes32 public contractType;\n\n}\n\ncontract AbstractHotel is AbstractBaseContract {\n\n  // Who owns this Hotel and can manage it.\n  address public manager;\n\n  // Arbitrary locator of the off-chain stored hotel data\n  // This might be an HTTPS resource, IPFS hash, Swarm address...\n  // This is intentionally generic.\n  string public dataUri;\n  // Number of block when the Hotel was created\n  uint public created;\n\n  // WTIndex address\n  address public index;\n\n  /**\n   * Allows calling such methods only when msg.sender is equal\n   * to previously set index propert.y\n   */\n  modifier onlyFromIndex() {\n    require(msg.sender == index);\n    _;\n  }\n\n\n  function _editInfoImpl(string _dataUri) internal;\n  function _destroyImpl() internal;\n  function _changeManagerImpl(address _newManager) internal;\n\n  /**\n   * @dev `editInfo` Allows owner to change hotel's dataUri.\n   * @param  _dataUri New dataUri pointer of this hotel\n   */\n  function editInfo(string _dataUri) onlyFromIndex public {\n    _editInfoImpl(_dataUri);\n  }\n\n  /**\n   * @dev `destroy` allows the owner to delete the Hotel\n   */\n  function destroy() onlyFromIndex public {\n    _destroyImpl();\n  }\n\n  /**\n   * @dev Allows owner to change hotel manager.\n   * @param _newManager New manager's address\n   */\n  function changeManager(address _newManager) onlyFromIndex public {\n    _changeManagerImpl(_newManager);\n  }\n}\n  \ncontract Hotel is AbstractHotel {\n\n  bytes32 public contractType = bytes32(\"hotel\");\n\n  /**\n   * @dev Constructor.\n   * @param _manager address of hotel owner\n   * @param _dataUri pointer to hotel data\n   * @param _index originating WTIndex address\n   */\n   \n   // Additional Functionality\n    uint RoomSupply = 0;\n\n\n    uint Price = 0;\n\n    uint donationTotal = 0;\n    struct donator{\n        address donatorAddress;\n        uint donatorAmount;\n    }\n    donator[] Donators;\n\n  //Service Provider is the place the funds are transfered when The donation Total is Reached.\n    address public ServiceProvider;\n\n  constructor(address _manager, string _dataUri, address _index, uint _Price, address _ServiceProvider) public {\n    require(_manager != address(0));\n    require(_index != address(0));\n    \n\n    require(bytes(_dataUri).length != 0);\n    \n    Price = _Price;\n    ServiceProvider = _ServiceProvider;\n    manager = _manager;\n    index = _index;\n    dataUri = _dataUri;\n    created = block.number;\n  }\n  function _donate(uint256 amount) payable public {\n        //require(msg.value == amount);\n        //require(msg.value <= (Price - address(this).balance));\n        donator memory thisDonator;\n        thisDonator.donatorAddress = msg.sender;\n        thisDonator.donatorAmount = msg.value;\n        Donators.push(thisDonator);\n    }\n    \n  function _checkDonationBalance() public view returns(uint){\n      return address(this).balance;\n  }\n  \n  function _checkAmountLeftToDonate() public view returns(uint){\n      return Price - address(this).balance;\n  }\n  \n  function _releaseDonations() public {\n      //require(msg.sender == manager);\n      //require(ServiceProvider != address(0x0));\n      //require(address(this).balance >= Price);\n      ServiceProvider.transfer(address(this).balance);\n      \n      \n  }\n  \n  function _editInfoImpl(string _dataUri) internal {\n    require(bytes(_dataUri).length != 0);\n    dataUri = _dataUri;\n  }\n\n  function _destroyImpl() internal {\n    selfdestruct(manager);\n  }\n\n  function _changeManagerImpl(address _newManager) internal {\n    require(_newManager != address(0));\n    manager = _newManager;\n  }\n\n\n}\n\ncontract Ownable {\n  address private _owner;\n\n  event OwnershipTransferred(\n    address indexed previousOwner,\n    address indexed newOwner\n  );\n\n  /**\n   * @dev The Ownable constructor sets the original `owner` of the contract to the sender\n   * account.\n   */\n  constructor() internal {\n    _owner = msg.sender;\n    emit OwnershipTransferred(address(0), _owner);\n  }\n\n  /**\n   * @return the address of the owner.\n   */\n  function owner() public view returns(address) {\n    return _owner;\n  }\n\n  /**\n   * @dev Throws if called by any account other than the owner.\n   */\n  modifier onlyOwner() {\n    require(isOwner());\n    _;\n  }\n\n  /**\n   * @return true if `msg.sender` is the owner of the contract.\n   */\n  function isOwner() public view returns(bool) {\n    return msg.sender == _owner;\n  }\n\n  /**\n   * @dev Allows the current owner to relinquish control of the contract.\n   * @notice Renouncing to ownership will leave the contract without an owner.\n   * It will not be possible to call the functions with the `onlyOwner`\n   * modifier anymore.\n   */\n  function renounceOwnership() public onlyOwner {\n    emit OwnershipTransferred(_owner, address(0));\n    _owner = address(0);\n  }\n\n  /**\n   * @dev Allows the current owner to transfer control of the contract to a newOwner.\n   * @param newOwner The address to transfer ownership to.\n   */\n  function transferOwnership(address newOwner) public onlyOwner {\n    _transferOwnership(newOwner);\n  }\n\n  /**\n   * @dev Transfers control of the contract to a newOwner.\n   * @param newOwner The address to transfer ownership to.\n   */\n  function _transferOwnership(address newOwner) internal {\n    require(newOwner != address(0));\n    emit OwnershipTransferred(_owner, newOwner);\n    _owner = newOwner;\n  }\n}\n\ncontract AbstractWTIndex is Ownable, AbstractBaseContract {\n  address[] public hotels;\n  mapping(address => uint) public hotelsIndex;\n  mapping(address => address[]) public hotelsByManager;\n  mapping(address => uint) public hotelsByManagerIndex;\n  address public LifToken;\n\n\n\n  function registerHotel(string dataUri) returns(address);\n  function deleteHotel(address hotel) external;\n  function callHotel(address hotel, bytes data) external;\n  function transferHotel(address hotel, address newManager) external;\n  function getHotelsLength() view public returns (uint);\n  function getHotels() view public returns (address[]);\n  function getHotelsByManager(address manager) view public returns (address[]);\n\n  event HotelRegistered(address hotel, uint managerIndex, uint allIndex, address ServiceProvider);\n  event HotelDeleted(address hotel, uint managerIndex, uint allIndex);\n  event HotelCalled(address hotel);\n  event HotelTransferred(address hotel, address previousManager, address newManager);\n}\n\ncontract WTIndex is AbstractWTIndex {\n\n  bytes32 public contractType = bytes32(\"wtindex\");\n\n  // Array of addresses of `Hotel` contracts\n  address[] public hotels;\n  // Mapping of hotels position in the general hotel index\n  mapping(address => uint) public hotelsIndex;\n\n  // Mapping of the hotels indexed by manager's address\n  mapping(address => address[]) public hotelsByManager;\n  // Mapping of hotels position in the manager's indexed hotel index\n  mapping(address => uint) public hotelsByManagerIndex;\n\n  // Address of the LifToken contract\n  address public LifToken;\n  \n  // Struct for Hotels/Request created\n \n  \n  uint HotelPrice;\n  \n  HotelContract[] public HotelList;\n  \n  address public SupplierAddress;\n  \n  string public DataUri;\n\n  /**\n   * @dev Event triggered every time hotel is registered\n   */\n  event HotelRegistered(address hotel, uint managerIndex, uint allIndex, address ServiceProvider);\n  /**\n   * @dev Event triggered every time hotel is deleted\n   */\n  event HotelDeleted(address hotel, uint managerIndex, uint allIndex);\n  /**\n   * @dev Event triggered every time hotel is called\n   */\n  event HotelCalled(address hotel);\n\n  /**\n   * @dev Event triggered every time a hotel changes a manager.\n   */\n  event HotelTransferred(address hotel, address previousManager, address newManager);\n\n  /**\n   * @dev Constructor. Creates the `WTIndex` contract\n   */\n\tconstructor(uint _price, string _dataUri) public {\n\t\thotels.length ++;\n\t\tSupplierAddress = msg.sender;\n\t\tHotelPrice = _price;\n\t\tDataUri = _dataUri;\n\t}\n\n  /**\n   * @dev `setLifToken` allows the owner of the contract to change the\n   * address of the LifToken contract\n   * @param _LifToken The new contract address\n   */\n  function setLifToken(address _LifToken) onlyOwner public {\n    LifToken = _LifToken;\n  }\n\n  /**\n   * @dev `registerHotel` Register new hotel in the index.\n   * Emits `HotelRegistered` on success.\n   * @param  dataUri Hotel's data pointer\n   */\n   \n    struct HotelContract {\n      address ContractAddress;\n      address SupplierAddress;\n      string ContractURI;\n      uint Price;\n  }\n   \n   function getHotelByListIndex(uint index) public view returns (address, address, string, uint){\n       HotelContract memory hotel;\n       hotel = HotelList[index];\n       \n       return (hotel.ContractAddress, hotel.SupplierAddress, hotel.ContractURI, hotel.Price);\n   }\n   \n   \n  function registerHotel(string dataUri, uint persons) returns (address hotelAddress) {\n    Hotel newHotel = new Hotel(msg.sender, dataUri, this, HotelPrice, SupplierAddress);\n    hotelsIndex[newHotel] = hotels.length;\n    hotels.push(newHotel);\n    hotelsByManagerIndex[newHotel] = hotelsByManager[msg.sender].length;\n    hotelsByManager[msg.sender].push(newHotel);\n    emit HotelRegistered(newHotel, hotelsByManagerIndex[newHotel], hotelsIndex[newHotel], SupplierAddress);\n    \n    HotelContract memory hotelContract;\n    \n    hotelContract.ContractAddress = newHotel;\n    hotelContract.SupplierAddress = SupplierAddress;\n    hotelContract.ContractURI = dataUri;\n    hotelContract.Price = HotelPrice*persons;\n    \n    HotelList.push(hotelContract);\n   \n\t}\n\n  /**\n   * @dev `deleteHotel` Allows a manager to delete a hotel, i. e. call destroy\n   * on the target Hotel contract. Emits `HotelDeleted` on success.\n   * @param  hotel  Hotel's address\n   */\n  function deleteHotel(address hotel) external {\n    // Ensure hotel address is valid\n    require(hotel != address(0));\n    // Ensure we know about the hotel at all\n    require(hotelsIndex[hotel] != uint(0));\n    // Ensure that the caller is the hotel's rightful owner\n    // There may actually be a hotel on index zero, that's why we use a double check\n    require(hotelsByManager[msg.sender][hotelsByManagerIndex[hotel]] != address(0));\n\n    Hotel hotelInstance = Hotel(hotel);\n    // Ensure we are calling only our own hotels\n    require(hotelInstance.index() == address(this));\n    hotelInstance.destroy();\n    \n    uint index = hotelsByManagerIndex[hotel];\n    uint allIndex = hotelsIndex[hotel];\n    delete hotels[allIndex];\n    delete hotelsIndex[hotel];\n    delete hotelsByManager[msg.sender][index];\n    delete hotelsByManagerIndex[hotel];\n    emit HotelDeleted(hotel, index, allIndex);\n\t}\n\n  /**\n   * @dev `callHotel` Call hotel in the index, the hotel can only\n   * be called by its manager. Effectively proxies a hotel call.\n   * Emits HotelCalled on success.\n   * @param  hotel Hotel's address\n   * @param  data Encoded method call to be done on Hotel contract.\n   */\n\tfunction callHotel(address hotel, bytes data) external {\n    // Ensure hotel address is valid\n    require(hotel != address(0));\n    // Ensure we know about the hotel at all\n    require(hotelsIndex[hotel] != uint(0));\n    // Ensure that the caller is the hotel's rightful owner\n    require(hotelsByManager[msg.sender][hotelsByManagerIndex[hotel]] != address(0));\n    Hotel hotelInstance = Hotel(hotel);\n    // Ensure we are calling only our own hotels\n    require(hotelInstance.index() == address(this));\n    require(hotel.call(data));\n    emit HotelCalled(hotel);\n\t}\n\n  function transferHotel(address hotel, address newManager) external {\n    // Ensure hotel address is valid\n    require(hotel != address(0));\n    // Ensure new manager is valid\n    require(newManager != address(0));\n    // Ensure we know about the hotel at all\n    require(hotelsIndex[hotel] != uint(0));\n    // Ensure that the caller is the hotel's rightful owner\n    // There may actually be a hotel on index zero, that's why we use a double check\n    require(hotelsByManager[msg.sender][hotelsByManagerIndex[hotel]] != address(0));\n\n    Hotel hotelInstance = Hotel(hotel);\n    // Ensure we are calling only our own hotels\n    require(hotelInstance.index() == address(this));\n    // Change ownership in the Hotel contract\n    hotelInstance.changeManager(newManager);\n    \n    // Detach from the old manager ...\n    uint index = hotelsByManagerIndex[hotel];\n    delete hotelsByManager[msg.sender][index];\n    // ... and attach to new manager\n    hotelsByManagerIndex[hotel] = hotelsByManager[newManager].length;\n    hotelsByManager[newManager].push(hotel);\n    emit HotelTransferred(hotel, msg.sender, newManager);\n  }\n\n  /**\n   * @dev `getHotelsLength` get the length of the `hotels` array\n   * @return {\" \": \"Length of the hotels array. Might contain zero addresses.\"}\n   */\n  function getHotelsLength() view public returns (uint) {\n    return hotels.length;\n  }\n\n  /**\n   * @dev `getHotels` get `hotels` array\n   * @return {\" \": \"Array of hotel addresses. Might contain zero addresses.\"}\n   */\n  function getHotels() view public returns (address[]) {\n    return hotels;\n  }\n\n  /**\n   * @dev `getHotelsByManager` get all the hotels belonging to one manager\n   * @param  manager Manager address\n   * @return {\" \": \"Array of hotels belonging to one manager. Might contain zero addresses.\"}\n   */\n\tfunction getHotelsByManager(address manager) view public returns (address[]) {\n\t\treturn hotelsByManager[manager];\n\t}\n\n}",
  "sourcePath": "/Users/dennisonbertram/Documents/StatusHack3/contracts/WTIndex.sol",
  "compiler": {
    "name": "solc",
    "version": "0.4.24+commit.e67f0147.Emscripten.clang"
  },
  "schemaVersion": "2.0.1",
  "updatedAt": "2018-10-27T08:25:43.913Z"
}