{
  "contractName": "WTIndex",
  "abi": [
    {
      "constant": true,
      "inputs": [
        {
          "name": "",
          "type": "address"
        }
      ],
      "name": "hotelsByManagerIndex",
      "outputs": [
        {
          "name": "",
          "type": "uint256"
        }
      ],
      "payable": false,
      "stateMutability": "view",
      "type": "function"
    },
    {
      "constant": true,
      "inputs": [],
      "name": "version",
      "outputs": [
        {
          "name": "",
          "type": "bytes32"
        }
      ],
      "payable": false,
      "stateMutability": "view",
      "type": "function"
    },
    {
      "constant": true,
      "inputs": [],
      "name": "LifToken",
      "outputs": [
        {
          "name": "",
          "type": "address"
        }
      ],
      "payable": false,
      "stateMutability": "view",
      "type": "function"
    },
    {
      "constant": false,
      "inputs": [],
      "name": "renounceOwnership",
      "outputs": [],
      "payable": false,
      "stateMutability": "nonpayable",
      "type": "function"
    },
    {
      "constant": true,
      "inputs": [
        {
          "name": "",
          "type": "address"
        },
        {
          "name": "",
          "type": "uint256"
        }
      ],
      "name": "hotelsByManager",
      "outputs": [
        {
          "name": "",
          "type": "address"
        }
      ],
      "payable": false,
      "stateMutability": "view",
      "type": "function"
    },
    {
      "constant": true,
      "inputs": [],
      "name": "owner",
      "outputs": [
        {
          "name": "",
          "type": "address"
        }
      ],
      "payable": false,
      "stateMutability": "view",
      "type": "function"
    },
    {
      "constant": true,
      "inputs": [],
      "name": "isOwner",
      "outputs": [
        {
          "name": "",
          "type": "bool"
        }
      ],
      "payable": false,
      "stateMutability": "view",
      "type": "function"
    },
    {
      "constant": true,
      "inputs": [
        {
          "name": "",
          "type": "address"
        }
      ],
      "name": "hotelsIndex",
      "outputs": [
        {
          "name": "",
          "type": "uint256"
        }
      ],
      "payable": false,
      "stateMutability": "view",
      "type": "function"
    },
    {
      "constant": true,
      "inputs": [],
      "name": "DataUri",
      "outputs": [
        {
          "name": "",
          "type": "string"
        }
      ],
      "payable": false,
      "stateMutability": "view",
      "type": "function"
    },
    {
      "constant": true,
      "inputs": [],
      "name": "contractType",
      "outputs": [
        {
          "name": "",
          "type": "bytes32"
        }
      ],
      "payable": false,
      "stateMutability": "view",
      "type": "function"
    },
    {
      "constant": true,
      "inputs": [
        {
          "name": "",
          "type": "uint256"
        }
      ],
      "name": "hotels",
      "outputs": [
        {
          "name": "",
          "type": "address"
        }
      ],
      "payable": false,
      "stateMutability": "view",
      "type": "function"
    },
    {
      "constant": true,
      "inputs": [],
      "name": "SupplierAddress",
      "outputs": [
        {
          "name": "",
          "type": "address"
        }
      ],
      "payable": false,
      "stateMutability": "view",
      "type": "function"
    },
    {
      "constant": false,
      "inputs": [
        {
          "name": "newOwner",
          "type": "address"
        }
      ],
      "name": "transferOwnership",
      "outputs": [],
      "payable": false,
      "stateMutability": "nonpayable",
      "type": "function"
    },
    {
      "constant": true,
      "inputs": [
        {
          "name": "",
          "type": "uint256"
        }
      ],
      "name": "HotelList",
      "outputs": [
        {
          "name": "ContractAddress",
          "type": "address"
        },
        {
          "name": "SupplierAddress",
          "type": "address"
        },
        {
          "name": "ContractURI",
          "type": "string"
        },
        {
          "name": "Price",
          "type": "uint256"
        }
      ],
      "payable": false,
      "stateMutability": "view",
      "type": "function"
    },
    {
      "inputs": [
        {
          "name": "_price",
          "type": "uint256"
        },
        {
          "name": "_dataUri",
          "type": "string"
        }
      ],
      "payable": false,
      "stateMutability": "nonpayable",
      "type": "constructor"
    },
    {
      "anonymous": false,
      "inputs": [
        {
          "indexed": false,
          "name": "hotel",
          "type": "address"
        },
        {
          "indexed": false,
          "name": "managerIndex",
          "type": "uint256"
        },
        {
          "indexed": false,
          "name": "allIndex",
          "type": "uint256"
        },
        {
          "indexed": false,
          "name": "ServiceProvider",
          "type": "address"
        }
      ],
      "name": "HotelRegistered",
      "type": "event"
    },
    {
      "anonymous": false,
      "inputs": [
        {
          "indexed": false,
          "name": "hotel",
          "type": "address"
        },
        {
          "indexed": false,
          "name": "managerIndex",
          "type": "uint256"
        },
        {
          "indexed": false,
          "name": "allIndex",
          "type": "uint256"
        }
      ],
      "name": "HotelDeleted",
      "type": "event"
    },
    {
      "anonymous": false,
      "inputs": [
        {
          "indexed": false,
          "name": "hotel",
          "type": "address"
        }
      ],
      "name": "HotelCalled",
      "type": "event"
    },
    {
      "anonymous": false,
      "inputs": [
        {
          "indexed": false,
          "name": "hotel",
          "type": "address"
        },
        {
          "indexed": false,
          "name": "previousManager",
          "type": "address"
        },
        {
          "indexed": false,
          "name": "newManager",
          "type": "address"
        }
      ],
      "name": "HotelTransferred",
      "type": "event"
    },
    {
      "anonymous": false,
      "inputs": [
        {
          "indexed": true,
          "name": "previousOwner",
          "type": "address"
        },
        {
          "indexed": true,
          "name": "newOwner",
          "type": "address"
        }
      ],
      "name": "OwnershipTransferred",
      "type": "event"
    },
    {
      "constant": false,
      "inputs": [
        {
          "name": "_LifToken",
          "type": "address"
        }
      ],
      "name": "setLifToken",
      "outputs": [],
      "payable": false,
      "stateMutability": "nonpayable",
      "type": "function"
    },
    {
      "constant": true,
      "inputs": [
        {
          "name": "index",
          "type": "uint256"
        }
      ],
      "name": "getHotelByListIndex",
      "outputs": [
        {
          "name": "",
          "type": "address"
        },
        {
          "name": "",
          "type": "address"
        },
        {
          "name": "",
          "type": "string"
        },
        {
          "name": "",
          "type": "uint256"
        }
      ],
      "payable": false,
      "stateMutability": "view",
      "type": "function"
    },
    {
      "constant": false,
      "inputs": [
        {
          "name": "dataUri",
          "type": "string"
        },
        {
          "name": "persons",
          "type": "uint256"
        }
      ],
      "name": "registerHotel",
      "outputs": [],
      "payable": false,
      "stateMutability": "nonpayable",
      "type": "function"
    },
    {
      "constant": false,
      "inputs": [
        {
          "name": "hotel",
          "type": "address"
        }
      ],
      "name": "deleteHotel",
      "outputs": [],
      "payable": false,
      "stateMutability": "nonpayable",
      "type": "function"
    },
    {
      "constant": false,
      "inputs": [
        {
          "name": "hotel",
          "type": "address"
        },
        {
          "name": "data",
          "type": "bytes"
        }
      ],
      "name": "callHotel",
      "outputs": [],
      "payable": false,
      "stateMutability": "nonpayable",
      "type": "function"
    },
    {
      "constant": false,
      "inputs": [
        {
          "name": "hotel",
          "type": "address"
        },
        {
          "name": "newManager",
          "type": "address"
        }
      ],
      "name": "transferHotel",
      "outputs": [],
      "payable": false,
      "stateMutability": "nonpayable",
      "type": "function"
    },
    {
      "constant": true,
      "inputs": [],
      "name": "getHotelsLength",
      "outputs": [
        {
          "name": "",
          "type": "uint256"
        }
      ],
      "payable": false,
      "stateMutability": "view",
      "type": "function"
    },
    {
      "constant": true,
      "inputs": [],
      "name": "getHotels",
      "outputs": [
        {
          "name": "",
          "type": "address[]"
        }
      ],
      "payable": false,
      "stateMutability": "view",
      "type": "function"
    },
    {
      "constant": true,
      "inputs": [
        {
          "name": "manager",
          "type": "address"
        }
      ],
      "name": "getHotelsByManager",
      "outputs": [
        {
          "name": "",
          "type": "address[]"
        }
      ],
      "payable": false,
      "stateMutability": "view",
      "type": "function"
    }
  ],
  "bytecode": "0x60806040527f302e322e340000000000000000000000000000000000000000000000000000006001557f52656c696566204566666f7274000000000000000000000000000000000000006008553480156200005957600080fd5b5060405162002149380380620021498339810160408190528151602083015160008054600160a060020a031916331780825592949190910192600160a060020a0392909216917f8be0079c531659141344cd1fd0a4f28419497f9722a3daafe3b4186f6b6457e0908290a36009805490620000d890600183016200010e565b5060108054600160a060020a03191633179055600e8290558051620001059060119060208401906200013a565b505050620001df565b815481835581811115620001355760008381526020902062000135918101908301620001bf565b505050565b828054600181600116156101000203166002900490600052602060002090601f016020900481019282601f106200017d57805160ff1916838001178555620001ad565b82800160010185558215620001ad579182015b82811115620001ad57825182559160200191906001019062000190565b50620001bb929150620001bf565b5090565b620001dc91905b80821115620001bb5760008155600101620001c6565b90565b611f5a80620001ef6000396000f3006080604052600436106200014a5763ffffffff7c01000000000000000000000000000000000000000000000000000000006000350416630d2e677a81146200014f578063154d56db14620001b9578063189f6aef14620001eb578063292d64e0146200022157806346d88525146200024b57806354fd4d50146200031a578063554d8b371462000332578063715018a614620003665780637cf2dfae146200037e5780638da5cb5b14620003a55780638f32d59b14620003bd5780639f9bfeb814620003e9578063bb979c3d146200040d578063c8daf6971462000431578063ca63a55b14620004c1578063cb2ef6f714620004d9578063cd33826514620004f1578063e1cc7c78146200050c578063e5eb0dae1462000524578063f2f0967b146200054b578063f2fde38b146200056f578063fb6f68751462000593578063fde1de0314620005b7575b600080fd5b3480156200015c57600080fd5b5062000167620005d2565b60408051602080825283518183015283519192839290830191858101910280838360005b83811015620001a55781810151838201526020016200018b565b505050509050019250505060405180910390f35b348015620001c657600080fd5b50620001e960048035600160a060020a0316906024803590810191013562000637565b005b348015620001f857600080fd5b506200020f600160a060020a0360043516620007eb565b60408051918252519081900360200190f35b3480156200022e57600080fd5b50620001e9600160a060020a0360043581169060243516620007fd565b3480156200025857600080fd5b506200026660043562000ac4565b6040518085600160a060020a0316600160a060020a0316815260200184600160a060020a0316600160a060020a0316815260200180602001838152602001828103825284818151815260200191508051906020019080838360005b83811015620002db578181015183820152602001620002c1565b50505050905090810190601f168015620003095780820380516001836020036101000a031916815260200191505b509550505050505060405180910390f35b3480156200032757600080fd5b506200020f62000be5565b3480156200033f57600080fd5b506200034a62000beb565b60408051600160a060020a039092168252519081900360200190f35b3480156200037357600080fd5b50620001e962000bfa565b3480156200038b57600080fd5b506200034a600160a060020a036004351660243562000c67565b348015620003b257600080fd5b506200034a62000c9f565b348015620003ca57600080fd5b50620003d562000cae565b604080519115158252519081900360200190f35b348015620003f657600080fd5b506200020f600160a060020a036004351662000cbf565b3480156200041a57600080fd5b5062000167600160a060020a036004351662000cd1565b3480156200043e57600080fd5b506200044962000d49565b6040805160208082528351818301528351919283929083019185019080838360005b83811015620004855781810151838201526020016200046b565b50505050905090810190601f168015620004b35780820380516001836020036101000a031916815260200191505b509250505060405180910390f35b348015620004ce57600080fd5b506200020f62000ddb565b348015620004e657600080fd5b506200020f62000de1565b348015620004fe57600080fd5b506200034a60043562000de7565b3480156200051957600080fd5b506200034a62000e10565b3480156200053157600080fd5b50620001e960246004803582810192910135903562000e1f565b3480156200055857600080fd5b50620001e9600160a060020a0360043516620010ea565b3480156200057c57600080fd5b50620001e9600160a060020a03600435166200112f565b348015620005a057600080fd5b50620001e9600160a060020a036004351662001153565b348015620005c457600080fd5b506200026660043562001413565b606060098054806020026020016040519081016040528092919081815260200182805480156200062c57602002820191906000526020600020905b8154600160a060020a031681526001909101906020018083116200060d575b505050505090505b90565b6000600160a060020a03841615156200064f57600080fd5b600160a060020a0384166000908152600a602052604090205415156200067457600080fd5b336000908152600b60209081526040808320600160a060020a0388168452600c90925282205481548110620006a557fe5b600091825260209091200154600160a060020a03161415620006c657600080fd5b83905030600160a060020a031681600160a060020a0316632986c0e56040518163ffffffff167c0100000000000000000000000000000000000000000000000000000000028152600401602060405180830381600087803b1580156200072b57600080fd5b505af115801562000740573d6000803e3d6000fd5b505050506040513d60208110156200075757600080fd5b5051600160a060020a0316146200076d57600080fd5b83600160a060020a03168383604051808383808284378201915050925050506000604051808303816000865af19150501515620007a957600080fd5b60408051600160a060020a038616815290517fe09d7761b6b107f86a1147fb54f3b8a8b920f81cec2bf9882e16f0f58bf2b88b9181900360200190a150505050565b600c6020526000908152604090205481565b600080600160a060020a03841615156200081657600080fd5b600160a060020a03831615156200082c57600080fd5b600160a060020a0384166000908152600a602052604090205415156200085157600080fd5b336000908152600b60209081526040808320600160a060020a0388168452600c909252822054815481106200088257fe5b600091825260209091200154600160a060020a03161415620008a357600080fd5b83915030600160a060020a031682600160a060020a0316632986c0e56040518163ffffffff167c0100000000000000000000000000000000000000000000000000000000028152600401602060405180830381600087803b1580156200090857600080fd5b505af11580156200091d573d6000803e3d6000fd5b505050506040513d60208110156200093457600080fd5b5051600160a060020a0316146200094a57600080fd5b81600160a060020a031663a3fbbaae846040518263ffffffff167c01000000000000000000000000000000000000000000000000000000000281526004018082600160a060020a0316600160a060020a03168152602001915050600060405180830381600087803b158015620009bf57600080fd5b505af1158015620009d4573d6000803e3d6000fd5b505050600160a060020a0385166000908152600c6020908152604080832054338452600b909252909120805491935091508290811062000a1057fe5b60009182526020808320909101805473ffffffffffffffffffffffffffffffffffffffff19908116909155600160a060020a03868116808552600b80855260408087208054948c16808952600c885282892086905592875260018501815587529585902090920180549093168217909255835190815233928101929092528183015290517f04dd8111702c5243bbb71b52b4f9d4b8f0bb3c448129ab39fd472b7c8182d1319181900360600190a150505050565b6000806060600062000ad562001568565b600f80548790811062000ae457fe5b6000918252602091829020604080516080810182526004939093029091018054600160a060020a039081168452600180830154909116848601526002808301805485516101009482161594909402600019011691909104601f810187900487028301870185528083529495929493860193919290919083018282801562000baf5780601f1062000b835761010080835404028352916020019162000baf565b820191906000526020600020905b81548152906001019060200180831162000b9157829003601f168201915b50505091835250506003919091015460209182015281519082015160408301516060909301519199909850919650945092505050565b60015481565b600d54600160a060020a031681565b62000c0462000cae565b151562000c1057600080fd5b60008054604051600160a060020a03909116907f8be0079c531659141344cd1fd0a4f28419497f9722a3daafe3b4186f6b6457e0908390a36000805473ffffffffffffffffffffffffffffffffffffffff19169055565b600b6020528160005260406000208181548110151562000c8357fe5b600091825260209091200154600160a060020a03169150829050565b600054600160a060020a031690565b600054600160a060020a0316331490565b600a6020526000908152604090205481565b600160a060020a0381166000908152600b602090815260409182902080548351818402810184019094528084526060939283018282801562000d3d57602002820191906000526020600020905b8154600160a060020a0316815260019091019060200180831162000d1e575b50505050509050919050565b6011805460408051602060026001851615610100026000190190941693909304601f8101849004840282018401909252818152929183018282801562000dd35780601f1062000da75761010080835404028352916020019162000dd3565b820191906000526020600020905b81548152906001019060200180831162000db557829003601f168201915b505050505081565b60095490565b60085481565b600980548290811062000df657fe5b600091825260209091200154600160a060020a0316905081565b601054600160a060020a031681565b600062000e2b62001568565b600e546010543391879187913091600160a060020a031662000e4c620015a3565b600160a060020a0380881682528481166040830152606082018490528216608082015260a06020820181815290820186905260c082018787808284378201915050975050505050505050604051809103906000f08015801562000eb3573d6000803e3d6000fd5b5060098054600160a060020a038084166000818152600a6020818152604080842087815560018089019099557f6e1540171b6c0c960b71a7020d9f60077f6af931a8bbf590da0223dacf75c7af909701805473ffffffffffffffffffffffffffffffffffffffff199081168717909155338552600b83528185208054878752600c85528387208181559a810182559086528386200180549091168617905592849052955490865293546010548251938452958301949094528181019390935292166060830152519193507f59559ec9eef6208c89a2ec6cea9f10ef79df30e68009c38c8c0b7d54667642ab919081900360800190a1600160a060020a0380831682526010541660208083019190915260408051601f870183900483028101830190915285815290869086908190840183828082843750505050604084019283525050600e5484026060830152600f805460018101808355600092909252835160049091027f8d1108e10bcb7c27dddfc02ed9d693a074039d026cf4ea4240b40f7d581ac80281018054600160a060020a0393841673ffffffffffffffffffffffffffffffffffffffff199182161782556020808801517f8d1108e10bcb7c27dddfc02ed9d693a074039d026cf4ea4240b40f7d581ac803850180549190961692169190911790935593518051939486949093620010d5937f8d1108e10bcb7c27dddfc02ed9d693a074039d026cf4ea4240b40f7d581ac80401920190620015b4565b50606082015181600301555050505050505050565b620010f462000cae565b15156200110057600080fd5b600d805473ffffffffffffffffffffffffffffffffffffffff1916600160a060020a0392909216919091179055565b6200113962000cae565b15156200114557600080fd5b6200115081620014ea565b50565b60008080600160a060020a03841615156200116d57600080fd5b600160a060020a0384166000908152600a602052604090205415156200119257600080fd5b336000908152600b60209081526040808320600160a060020a0388168452600c90925282205481548110620011c357fe5b600091825260209091200154600160a060020a03161415620011e457600080fd5b83925030600160a060020a031683600160a060020a0316632986c0e56040518163ffffffff167c0100000000000000000000000000000000000000000000000000000000028152600401602060405180830381600087803b1580156200124957600080fd5b505af11580156200125e573d6000803e3d6000fd5b505050506040513d60208110156200127557600080fd5b5051600160a060020a0316146200128b57600080fd5b82600160a060020a03166383197ef06040518163ffffffff167c0100000000000000000000000000000000000000000000000000000000028152600401600060405180830381600087803b158015620012e357600080fd5b505af1158015620012f8573d6000803e3d6000fd5b505050600160a060020a0385166000908152600c6020908152604080832054600a90925290912054600980549295509093509150829081106200133757fe5b60009182526020808320909101805473ffffffffffffffffffffffffffffffffffffffff19169055600160a060020a0386168252600a81526040808320839055338352600b90915290208054839081106200138e57fe5b60009182526020808320909101805473ffffffffffffffffffffffffffffffffffffffff19169055600160a060020a038616808352600c8252604080842093909355825190815290810184905280820183905290517f54f58abd720fd85fca71338625f22827f2e77f00c1bc457b210203060734882e9181900360600190a150505050565b600f8054829081106200142257fe5b600091825260209182902060049091020180546001808301546002808501805460408051601f60001997841615610100029790970190921693909304948501889004880281018801909252838252600160a060020a0394851697509190931694909190830182828015620014da5780601f10620014ae57610100808354040283529160200191620014da565b820191906000526020600020905b815481529060010190602001808311620014bc57829003601f168201915b5050505050908060030154905084565b600160a060020a03811615156200150057600080fd5b60008054604051600160a060020a03808516939216917f8be0079c531659141344cd1fd0a4f28419497f9722a3daafe3b4186f6b6457e091a36000805473ffffffffffffffffffffffffffffffffffffffff1916600160a060020a0392909216919091179055565b6080604051908101604052806000600160a060020a031681526020016000600160a060020a0316815260200160608152602001600081525090565b6040516108d8806200165783390190565b828054600181600116156101000203166002900490600052602060002090601f016020900481019282601f10620015f757805160ff191683800117855562001627565b8280016001018555821562001627579182015b82811115620016275782518255916020019190600101906200160a565b506200163592915062001639565b5090565b6200063491905b8082111562001635576000815560010162001640560060806040527f302e322e3400000000000000000000000000000000000000000000000000000060009081557f686f74656c0000000000000000000000000000000000000000000000000000006006556007819055600881905560095534801561006757600080fd5b506040516108d83803806108d8833981016040908152815160208301519183015160608401516080850151929493909301929091600160a060020a03851615156100b057600080fd5b600160a060020a03831615156100c557600080fd5b835115156100d257600080fd5b6008829055600b8054600160a060020a03808416600160a060020a0319928316179092556002805488841690831617905560058054928616929091169190911790558351610127906003906020870190610137565b505043600455506101d292505050565b828054600181600116156101000203166002900490600052602060002090601f016020900481019282601f1061017857805160ff19168380011785556101a5565b828001600101855582156101a5579182015b828111156101a557825182559160200191906001019061018a565b506101b19291506101b5565b5090565b6101cf91905b808211156101b157600081556001016101bb565b90565b6106f7806101e16000396000f3006080604052600436106100cf5763ffffffff7c01000000000000000000000000000000000000000000000000000000006000350416630adbe3ff81146100d45780632986c0e5146100fb5780632e426f6814610139578063325a19f114610150578063481c6a751461016557806354fd4d501461017a57806383197ef01461018f5780638a9b29eb146101a45780639d9b53421461022e578063a3fbbaae14610287578063b27e29bf146102b5578063cb2ef6f7146102ca578063cfbea93e146102df578063f0b1004d146102f4575b600080fd5b3480156100e057600080fd5b506100e96102fc565b60408051918252519081900360200190f35b34801561010757600080fd5b50610110610302565b6040805173ffffffffffffffffffffffffffffffffffffffff9092168252519081900360200190f35b34801561014557600080fd5b5061014e61031e565b005b34801561015c57600080fd5b506100e9610368565b34801561017157600080fd5b5061011061036e565b34801561018657600080fd5b506100e961038a565b34801561019b57600080fd5b5061014e610390565b3480156101b057600080fd5b506101b96103be565b6040805160208082528351818301528351919283929083019185019080838360005b838110156101f35781810151838201526020016101db565b50505050905090810190601f1680156102205780820380516001836020036101000a031916815260200191505b509250505060405180910390f35b34801561023a57600080fd5b506040805160206004803580820135601f810184900484028501840190955284845261014e94369492936024939284019190819084018382808284375094975061044c9650505050505050565b34801561029357600080fd5b5061014e73ffffffffffffffffffffffffffffffffffffffff60043516610479565b3480156102c157600080fd5b506101106104a6565b3480156102d657600080fd5b506100e96104c2565b3480156102eb57600080fd5b506100e96104c8565b61014e6104d2565b30315b90565b60055473ffffffffffffffffffffffffffffffffffffffff1681565b600b5460405173ffffffffffffffffffffffffffffffffffffffff90911690303180156108fc02916000818181858888f19350505050158015610365573d6000803e3d6000fd5b50565b60045481565b60025473ffffffffffffffffffffffffffffffffffffffff1681565b60005481565b60055473ffffffffffffffffffffffffffffffffffffffff1633146103b457600080fd5b6103bc61057f565b565b6003805460408051602060026001851615610100026000190190941693909304601f810184900484028201840190925281815292918301828280156104445780601f1061041957610100808354040283529160200191610444565b820191906000526020600020905b81548152906001019060200180831161042757829003601f168201915b505050505081565b60055473ffffffffffffffffffffffffffffffffffffffff16331461047057600080fd5b6103658161059a565b60055473ffffffffffffffffffffffffffffffffffffffff16331461049d57600080fd5b610365816105be565b600b5473ffffffffffffffffffffffffffffffffffffffff1681565b60065481565b6008543031900390565b6104da61061c565b3381523460208201908152600a805460018101825560009190915291517fc65a7bb8d6351c1cf70c95a316cc6a92839c986682d98bc35f958f4883f9d2a86002909302928301805473ffffffffffffffffffffffffffffffffffffffff191673ffffffffffffffffffffffffffffffffffffffff909216919091179055517fc65a7bb8d6351c1cf70c95a316cc6a92839c986682d98bc35f958f4883f9d2a990910155565b60025473ffffffffffffffffffffffffffffffffffffffff16ff5b805115156105a757600080fd5b80516105ba906003906020840190610633565b5050565b73ffffffffffffffffffffffffffffffffffffffff811615156105e057600080fd5b6002805473ffffffffffffffffffffffffffffffffffffffff191673ffffffffffffffffffffffffffffffffffffffff92909216919091179055565b604080518082019091526000808252602082015290565b828054600181600116156101000203166002900490600052602060002090601f016020900481019282601f1061067457805160ff19168380011785556106a1565b828001600101855582156106a1579182015b828111156106a1578251825591602001919060010190610686565b506106ad9291506106b1565b5090565b6102ff91905b808211156106ad57600081556001016106b75600a165627a7a72305820086ba1d1d71546afc685dbb509ff83d902c97fcb65fcb2c31a0bc02283075b460029a165627a7a7230582057dd4b850f8796c2c2574d5bd4061ed3247b543b02da9e94f1f18be512a7521d0029",
  "source": "pragma solidity ^0.4.24;\n\ncontract AbstractBaseContract {\n\n  // The hex-encoded version, follows the semantic standard MAJOR.MINOR.PATCH-EXTENSION\n  // It should always match the version in package.json.\n  bytes32 public version = bytes32(\"0.2.4\");\n\n  // The hex-encoded type of the contract, in all lowercase letters without any spaces.\n  // It has to be defined in each contract that uses this interface.\n  bytes32 public contractType;\n\n}\n\ncontract AbstractHotel is AbstractBaseContract {\n\n  // Who owns this Hotel and can manage it.\n  address public manager;\n\n  // Arbitrary locator of the off-chain stored hotel data\n  // This might be an HTTPS resource, IPFS hash, Swarm address...\n  // This is intentionally generic.\n  string public dataUri;\n  // Number of block when the Hotel was created\n  uint public created;\n\n  // WTIndex address\n  address public index;\n\n  /**\n   * Allows calling such methods only when msg.sender is equal\n   * to previously set index propert.y\n   */\n  modifier onlyFromIndex() {\n    require(msg.sender == index);\n    _;\n  }\n\n\n  function _editInfoImpl(string _dataUri) internal;\n  function _destroyImpl() internal;\n  function _changeManagerImpl(address _newManager) internal;\n\n  /**\n   * @dev `editInfo` Allows owner to change hotel's dataUri.\n   * @param  _dataUri New dataUri pointer of this hotel\n   */\n  function editInfo(string _dataUri) onlyFromIndex public {\n    _editInfoImpl(_dataUri);\n  }\n\n  /**\n   * @dev `destroy` allows the owner to delete the Hotel\n   */\n  function destroy() onlyFromIndex public {\n    _destroyImpl();\n  }\n\n  /**\n   * @dev Allows owner to change hotel manager.\n   * @param _newManager New manager's address\n   */\n  function changeManager(address _newManager) onlyFromIndex public {\n    _changeManagerImpl(_newManager);\n  }\n}\n  \ncontract Hotel is AbstractHotel {\n\n  bytes32 public contractType = bytes32(\"hotel\");\n\n  /**\n   * @dev Constructor.\n   * @param _manager address of hotel owner\n   * @param _dataUri pointer to hotel data\n   * @param _index originating WTIndex address\n   */\n   \n   // Additional Functionality\n    uint RoomSupply = 0;\n\n\n    uint Price = 0;\n\n    uint donationTotal = 0;\n    struct donator{\n        address donatorAddress;\n        uint donatorAmount;\n    }\n    donator[] Donators;\n\n  //Service Provider is the place the funds are transfered when The donation Total is Reached.\n    address public ServiceProvider;\n\n  constructor(address _manager, string _dataUri, address _index, uint _Price, address _ServiceProvider) public {\n    require(_manager != address(0));\n    require(_index != address(0));\n    \n\n    require(bytes(_dataUri).length != 0);\n    \n    Price = _Price;\n    ServiceProvider = _ServiceProvider;\n    manager = _manager;\n    index = _index;\n    dataUri = _dataUri;\n    created = block.number;\n  }\n  function _donate() payable public {\n        //require(msg.value == amount);\n        //require(msg.value <= (Price - address(this).balance));\n        donator memory thisDonator;\n        thisDonator.donatorAddress = msg.sender;\n        thisDonator.donatorAmount = msg.value;\n        Donators.push(thisDonator);\n    }\n    \n  function _checkDonationBalance() public view returns(uint){\n      return address(this).balance;\n  }\n  \n  function _checkAmountLeftToDonate() public view returns(uint){\n      return Price - address(this).balance;\n  }\n  \n  function _releaseDonations() public {\n      //require(msg.sender == manager);\n      //require(ServiceProvider != address(0x0));\n      //require(address(this).balance >= Price);\n      ServiceProvider.transfer(address(this).balance);\n      \n      \n  }\n  \n  function _editInfoImpl(string _dataUri) internal {\n    require(bytes(_dataUri).length != 0);\n    dataUri = _dataUri;\n  }\n\n  function _destroyImpl() internal {\n    selfdestruct(manager);\n  }\n\n  function _changeManagerImpl(address _newManager) internal {\n    require(_newManager != address(0));\n    manager = _newManager;\n  }\n\n\n}\n\ncontract Ownable {\n  address private _owner;\n\n  event OwnershipTransferred(\n    address indexed previousOwner,\n    address indexed newOwner\n  );\n\n  /**\n   * @dev The Ownable constructor sets the original `owner` of the contract to the sender\n   * account.\n   */\n  constructor() internal {\n    _owner = msg.sender;\n    emit OwnershipTransferred(address(0), _owner);\n  }\n\n  /**\n   * @return the address of the owner.\n   */\n  function owner() public view returns(address) {\n    return _owner;\n  }\n\n  /**\n   * @dev Throws if called by any account other than the owner.\n   */\n  modifier onlyOwner() {\n    require(isOwner());\n    _;\n  }\n\n  /**\n   * @return true if `msg.sender` is the owner of the contract.\n   */\n  function isOwner() public view returns(bool) {\n    return msg.sender == _owner;\n  }\n\n  /**\n   * @dev Allows the current owner to relinquish control of the contract.\n   * @notice Renouncing to ownership will leave the contract without an owner.\n   * It will not be possible to call the functions with the `onlyOwner`\n   * modifier anymore.\n   */\n  function renounceOwnership() public onlyOwner {\n    emit OwnershipTransferred(_owner, address(0));\n    _owner = address(0);\n  }\n\n  /**\n   * @dev Allows the current owner to transfer control of the contract to a newOwner.\n   * @param newOwner The address to transfer ownership to.\n   */\n  function transferOwnership(address newOwner) public onlyOwner {\n    _transferOwnership(newOwner);\n  }\n\n  /**\n   * @dev Transfers control of the contract to a newOwner.\n   * @param newOwner The address to transfer ownership to.\n   */\n  function _transferOwnership(address newOwner) internal {\n    require(newOwner != address(0));\n    emit OwnershipTransferred(_owner, newOwner);\n    _owner = newOwner;\n  }\n}\n\ncontract AbstractWTIndex is Ownable, AbstractBaseContract {\n  address[] public hotels;\n  mapping(address => uint) public hotelsIndex;\n  mapping(address => address[]) public hotelsByManager;\n  mapping(address => uint) public hotelsByManagerIndex;\n  address public LifToken;\n\n\n\n  function registerHotel(string dataUri, uint persons) external;\n  function deleteHotel(address hotel) external;\n  function callHotel(address hotel, bytes data) external;\n  function transferHotel(address hotel, address newManager) external;\n  function getHotelsLength() view public returns (uint);\n  function getHotels() view public returns (address[]);\n  function getHotelsByManager(address manager) view public returns (address[]);\n\n  event HotelRegistered(address hotel, uint managerIndex, uint allIndex, address ServiceProvider);\n  event HotelDeleted(address hotel, uint managerIndex, uint allIndex);\n  event HotelCalled(address hotel);\n  event HotelTransferred(address hotel, address previousManager, address newManager);\n}\n\ncontract WTIndex is AbstractWTIndex {\n\n  bytes32 public contractType = bytes32(\"Relief Effort\");\n\n  // Array of addresses of `Hotel` contracts\n  address[] public hotels;\n  // Mapping of hotels position in the general hotel index\n  mapping(address => uint) public hotelsIndex;\n\n  // Mapping of the hotels indexed by manager's address\n  mapping(address => address[]) public hotelsByManager;\n  // Mapping of hotels position in the manager's indexed hotel index\n  mapping(address => uint) public hotelsByManagerIndex;\n\n  // Address of the LifToken contract\n  address public LifToken;\n  \n  // Struct for Hotels/Request created\n  uint HotelPrice;\n  \n  HotelContract[] public HotelList;\n  \n  address public SupplierAddress;\n  \n  string public DataUri;\n\n  /**\n   * @dev Event triggered every time hotel is registered\n   */\n  event HotelRegistered(address hotel, uint managerIndex, uint allIndex, address ServiceProvider);\n  /**\n   * @dev Event triggered every time hotel is deleted\n   */\n  event HotelDeleted(address hotel, uint managerIndex, uint allIndex);\n  /**\n   * @dev Event triggered every time hotel is called\n   */\n  event HotelCalled(address hotel);\n\n  /**\n   * @dev Event triggered every time a hotel changes a manager.\n   */\n  event HotelTransferred(address hotel, address previousManager, address newManager);\n\n  /**\n   * @dev Constructor. Creates the `WTIndex` contract\n   */\n\tconstructor(uint _price, string _dataUri) public {\n\t\thotels.length ++;\n\t\tSupplierAddress = msg.sender;\n\t\tHotelPrice = _price;\n\t\tDataUri = _dataUri;\n\t}\n\n  /**\n   * @dev `setLifToken` allows the owner of the contract to change the\n   * address of the LifToken contract\n   * @param _LifToken The new contract address\n   */\n  function setLifToken(address _LifToken) onlyOwner public {\n    LifToken = _LifToken;\n  }\n\n  /**\n   * @dev `registerHotel` Register new hotel in the index.\n   * Emits `HotelRegistered` on success.\n   * @param  dataUri Hotel's data pointer\n   */\n   \n    struct HotelContract {\n      address ContractAddress;\n      address SupplierAddress;\n      string ContractURI;\n      uint Price;\n  }\n   \n   function getHotelByListIndex(uint index) public view returns (address, address, string, uint){\n       HotelContract memory hotel;\n       hotel = HotelList[index];\n       return (hotel.ContractAddress, hotel.SupplierAddress, hotel.ContractURI, hotel.Price);\n   }\n   \n   \n  function registerHotel(string dataUri, uint persons) external {\n    Hotel newHotel = new Hotel(msg.sender, dataUri, this, HotelPrice, SupplierAddress);\n    hotelsIndex[newHotel] = hotels.length;\n    hotels.push(newHotel);\n    hotelsByManagerIndex[newHotel] = hotelsByManager[msg.sender].length;\n    hotelsByManager[msg.sender].push(newHotel);\n    emit HotelRegistered(newHotel, hotelsByManagerIndex[newHotel], hotelsIndex[newHotel], SupplierAddress);\n    \n    HotelContract memory hotelContract;\n    \n    hotelContract.ContractAddress = newHotel;\n    hotelContract.SupplierAddress = SupplierAddress;\n    hotelContract.ContractURI = dataUri;\n    hotelContract.Price = HotelPrice*persons;\n    \n    \n    HotelList.push(hotelContract);\n   \n\t}\n\n  /**\n   * @dev `deleteHotel` Allows a manager to delete a hotel, i. e. call destroy\n   * on the target Hotel contract. Emits `HotelDeleted` on success.\n   * @param  hotel  Hotel's address\n   */\n  function deleteHotel(address hotel) external {\n    // Ensure hotel address is valid\n    require(hotel != address(0));\n    // Ensure we know about the hotel at all\n    require(hotelsIndex[hotel] != uint(0));\n    // Ensure that the caller is the hotel's rightful owner\n    // There may actually be a hotel on index zero, that's why we use a double check\n    require(hotelsByManager[msg.sender][hotelsByManagerIndex[hotel]] != address(0));\n\n    Hotel hotelInstance = Hotel(hotel);\n    // Ensure we are calling only our own hotels\n    require(hotelInstance.index() == address(this));\n    hotelInstance.destroy();\n    \n    uint index = hotelsByManagerIndex[hotel];\n    uint allIndex = hotelsIndex[hotel];\n    delete hotels[allIndex];\n    delete hotelsIndex[hotel];\n    delete hotelsByManager[msg.sender][index];\n    delete hotelsByManagerIndex[hotel];\n    emit HotelDeleted(hotel, index, allIndex);\n\t}\n\n  /**\n   * @dev `callHotel` Call hotel in the index, the hotel can only\n   * be called by its manager. Effectively proxies a hotel call.\n   * Emits HotelCalled on success.\n   * @param  hotel Hotel's address\n   * @param  data Encoded method call to be done on Hotel contract.\n   */\n\tfunction callHotel(address hotel, bytes data) external {\n    // Ensure hotel address is valid\n    require(hotel != address(0));\n    // Ensure we know about the hotel at all\n    require(hotelsIndex[hotel] != uint(0));\n    // Ensure that the caller is the hotel's rightful owner\n    require(hotelsByManager[msg.sender][hotelsByManagerIndex[hotel]] != address(0));\n    Hotel hotelInstance = Hotel(hotel);\n    // Ensure we are calling only our own hotels\n    require(hotelInstance.index() == address(this));\n    require(hotel.call(data));\n    emit HotelCalled(hotel);\n\t}\n\n  function transferHotel(address hotel, address newManager) external {\n    // Ensure hotel address is valid\n    require(hotel != address(0));\n    // Ensure new manager is valid\n    require(newManager != address(0));\n    // Ensure we know about the hotel at all\n    require(hotelsIndex[hotel] != uint(0));\n    // Ensure that the caller is the hotel's rightful owner\n    // There may actually be a hotel on index zero, that's why we use a double check\n    require(hotelsByManager[msg.sender][hotelsByManagerIndex[hotel]] != address(0));\n\n    Hotel hotelInstance = Hotel(hotel);\n    // Ensure we are calling only our own hotels\n    require(hotelInstance.index() == address(this));\n    // Change ownership in the Hotel contract\n    hotelInstance.changeManager(newManager);\n    \n    // Detach from the old manager ...\n    uint index = hotelsByManagerIndex[hotel];\n    delete hotelsByManager[msg.sender][index];\n    // ... and attach to new manager\n    hotelsByManagerIndex[hotel] = hotelsByManager[newManager].length;\n    hotelsByManager[newManager].push(hotel);\n    emit HotelTransferred(hotel, msg.sender, newManager);\n  }\n\n  /**\n   * @dev `getHotelsLength` get the length of the `hotels` array\n   * @return {\" \": \"Length of the hotels array. Might contain zero addresses.\"}\n   */\n  function getHotelsLength() view public returns (uint) {\n    return hotels.length;\n  }\n\n  /**\n   * @dev `getHotels` get `hotels` array\n   * @return {\" \": \"Array of hotel addresses. Might contain zero addresses.\"}\n   */\n  function getHotels() view public returns (address[]) {\n    return hotels;\n  }\n\n  /**\n   * @dev `getHotelsByManager` get all the hotels belonging to one manager\n   * @param  manager Manager address\n   * @return {\" \": \"Array of hotels belonging to one manager. Might contain zero addresses.\"}\n   */\n\tfunction getHotelsByManager(address manager) view public returns (address[]) {\n\t\treturn hotelsByManager[manager];\n\t}\n\n}",
  "sourcePath": "/Users/dennisonbertram/Documents/StatusHack3/contracts/WTIndex.sol",
  "compiler": {
    "name": "solc",
    "version": "0.4.24+commit.e67f0147.Emscripten.clang"
  },
  "schemaVersion": "2.0.1",
  "updatedAt": "2018-10-27T08:40:47.495Z"
}