{
  "contractName": "WTIndex",
  "abi": [
    {
      "constant": true,
      "inputs": [
        {
          "name": "",
          "type": "address"
        }
      ],
      "name": "hotelsByManagerIndex",
      "outputs": [
        {
          "name": "",
          "type": "uint256"
        }
      ],
      "payable": false,
      "stateMutability": "view",
      "type": "function"
    },
    {
      "constant": true,
      "inputs": [],
      "name": "version",
      "outputs": [
        {
          "name": "",
          "type": "bytes32"
        }
      ],
      "payable": false,
      "stateMutability": "view",
      "type": "function"
    },
    {
      "constant": true,
      "inputs": [],
      "name": "LifToken",
      "outputs": [
        {
          "name": "",
          "type": "address"
        }
      ],
      "payable": false,
      "stateMutability": "view",
      "type": "function"
    },
    {
      "constant": false,
      "inputs": [],
      "name": "renounceOwnership",
      "outputs": [],
      "payable": false,
      "stateMutability": "nonpayable",
      "type": "function"
    },
    {
      "constant": true,
      "inputs": [
        {
          "name": "",
          "type": "address"
        },
        {
          "name": "",
          "type": "uint256"
        }
      ],
      "name": "hotelsByManager",
      "outputs": [
        {
          "name": "",
          "type": "address"
        }
      ],
      "payable": false,
      "stateMutability": "view",
      "type": "function"
    },
    {
      "constant": true,
      "inputs": [],
      "name": "owner",
      "outputs": [
        {
          "name": "",
          "type": "address"
        }
      ],
      "payable": false,
      "stateMutability": "view",
      "type": "function"
    },
    {
      "constant": true,
      "inputs": [],
      "name": "isOwner",
      "outputs": [
        {
          "name": "",
          "type": "bool"
        }
      ],
      "payable": false,
      "stateMutability": "view",
      "type": "function"
    },
    {
      "constant": true,
      "inputs": [
        {
          "name": "",
          "type": "address"
        }
      ],
      "name": "hotelsIndex",
      "outputs": [
        {
          "name": "",
          "type": "uint256"
        }
      ],
      "payable": false,
      "stateMutability": "view",
      "type": "function"
    },
    {
      "constant": true,
      "inputs": [],
      "name": "contractType",
      "outputs": [
        {
          "name": "",
          "type": "bytes32"
        }
      ],
      "payable": false,
      "stateMutability": "view",
      "type": "function"
    },
    {
      "constant": true,
      "inputs": [
        {
          "name": "",
          "type": "uint256"
        }
      ],
      "name": "hotels",
      "outputs": [
        {
          "name": "",
          "type": "address"
        }
      ],
      "payable": false,
      "stateMutability": "view",
      "type": "function"
    },
    {
      "constant": false,
      "inputs": [
        {
          "name": "newOwner",
          "type": "address"
        }
      ],
      "name": "transferOwnership",
      "outputs": [],
      "payable": false,
      "stateMutability": "nonpayable",
      "type": "function"
    },
    {
      "inputs": [],
      "payable": false,
      "stateMutability": "nonpayable",
      "type": "constructor"
    },
    {
      "anonymous": false,
      "inputs": [
        {
          "indexed": false,
          "name": "hotel",
          "type": "address"
        },
        {
          "indexed": false,
          "name": "managerIndex",
          "type": "uint256"
        },
        {
          "indexed": false,
          "name": "allIndex",
          "type": "uint256"
        },
        {
          "indexed": false,
          "name": "_OfferOrRequest",
          "type": "uint256"
        },
        {
          "indexed": false,
          "name": "ServiceProvider",
          "type": "address"
        }
      ],
      "name": "HotelRegistered",
      "type": "event"
    },
    {
      "anonymous": false,
      "inputs": [
        {
          "indexed": false,
          "name": "hotel",
          "type": "address"
        },
        {
          "indexed": false,
          "name": "managerIndex",
          "type": "uint256"
        },
        {
          "indexed": false,
          "name": "allIndex",
          "type": "uint256"
        }
      ],
      "name": "HotelDeleted",
      "type": "event"
    },
    {
      "anonymous": false,
      "inputs": [
        {
          "indexed": false,
          "name": "hotel",
          "type": "address"
        }
      ],
      "name": "HotelCalled",
      "type": "event"
    },
    {
      "anonymous": false,
      "inputs": [
        {
          "indexed": false,
          "name": "hotel",
          "type": "address"
        },
        {
          "indexed": false,
          "name": "previousManager",
          "type": "address"
        },
        {
          "indexed": false,
          "name": "newManager",
          "type": "address"
        }
      ],
      "name": "HotelTransferred",
      "type": "event"
    },
    {
      "anonymous": false,
      "inputs": [
        {
          "indexed": true,
          "name": "previousOwner",
          "type": "address"
        },
        {
          "indexed": true,
          "name": "newOwner",
          "type": "address"
        }
      ],
      "name": "OwnershipTransferred",
      "type": "event"
    },
    {
      "constant": false,
      "inputs": [
        {
          "name": "_LifToken",
          "type": "address"
        }
      ],
      "name": "setLifToken",
      "outputs": [],
      "payable": false,
      "stateMutability": "nonpayable",
      "type": "function"
    },
    {
      "constant": false,
      "inputs": [
        {
          "name": "dataUri",
          "type": "string"
        },
        {
          "name": "_OfferOrRequest",
          "type": "uint256"
        },
        {
          "name": "_Price",
          "type": "uint256"
        },
        {
          "name": "ServiceProvider",
          "type": "address"
        }
      ],
      "name": "registerHotel",
      "outputs": [
        {
          "name": "hotelAddress",
          "type": "address"
        }
      ],
      "payable": false,
      "stateMutability": "nonpayable",
      "type": "function"
    },
    {
      "constant": false,
      "inputs": [
        {
          "name": "hotel",
          "type": "address"
        }
      ],
      "name": "deleteHotel",
      "outputs": [],
      "payable": false,
      "stateMutability": "nonpayable",
      "type": "function"
    },
    {
      "constant": false,
      "inputs": [
        {
          "name": "hotel",
          "type": "address"
        },
        {
          "name": "data",
          "type": "bytes"
        }
      ],
      "name": "callHotel",
      "outputs": [],
      "payable": false,
      "stateMutability": "nonpayable",
      "type": "function"
    },
    {
      "constant": false,
      "inputs": [
        {
          "name": "hotel",
          "type": "address"
        },
        {
          "name": "newManager",
          "type": "address"
        }
      ],
      "name": "transferHotel",
      "outputs": [],
      "payable": false,
      "stateMutability": "nonpayable",
      "type": "function"
    },
    {
      "constant": true,
      "inputs": [],
      "name": "getHotelsLength",
      "outputs": [
        {
          "name": "",
          "type": "uint256"
        }
      ],
      "payable": false,
      "stateMutability": "view",
      "type": "function"
    },
    {
      "constant": true,
      "inputs": [],
      "name": "getHotels",
      "outputs": [
        {
          "name": "",
          "type": "address[]"
        }
      ],
      "payable": false,
      "stateMutability": "view",
      "type": "function"
    },
    {
      "constant": true,
      "inputs": [
        {
          "name": "manager",
          "type": "address"
        }
      ],
      "name": "getHotelsByManager",
      "outputs": [
        {
          "name": "",
          "type": "address[]"
        }
      ],
      "payable": false,
      "stateMutability": "view",
      "type": "function"
    }
  ],
  "bytecode": "0x60806040527f302e322e340000000000000000000000000000000000000000000000000000006001557f7774696e6465780000000000000000000000000000000000000000000000000060085534801561005857600080fd5b5060008054600160a060020a0319163317808255604051600160a060020a039190911691907f8be0079c531659141344cd1fd0a4f28419497f9722a3daafe3b4186f6b6457e0908290a360098054906100b490600183016100ba565b50610104565b8154818355818111156100de576000838152602090206100de9181019083016100e3565b505050565b61010191905b808211156100fd57600081556001016100e9565b5090565b90565b6117c5806101136000396000f3006080604052600436106200011a5763ffffffff7c01000000000000000000000000000000000000000000000000000000006000350416630d2e677a81146200011f578063154d56db1462000189578063189f6aef14620001bb578063292d64e014620001f157806354fd4d50146200021b578063554d8b3714620002335780635657ca2e1462000267578063715018a614620002d95780637cf2dfae14620002f15780638da5cb5b14620003185780638f32d59b14620003305780639f9bfeb8146200035c578063bb979c3d1462000380578063ca63a55b14620003a4578063cb2ef6f714620003bc578063cd33826514620003d4578063f2f0967b14620003ef578063f2fde38b1462000413578063fb6f68751462000437575b600080fd5b3480156200012c57600080fd5b50620001376200045b565b60408051602080825283518183015283519192839290830191858101910280838360005b83811015620001755781810151838201526020016200015b565b505050509050019250505060405180910390f35b3480156200019657600080fd5b50620001b960048035600160a060020a03169060248035908101910135620004bf565b005b348015620001c857600080fd5b50620001df600160a060020a036004351662000673565b60408051918252519081900360200190f35b348015620001fe57600080fd5b50620001b9600160a060020a036004358116906024351662000685565b3480156200022857600080fd5b50620001df6200094c565b3480156200024057600080fd5b506200024b62000952565b60408051600160a060020a039092168252519081900360200190f35b3480156200027457600080fd5b506040805160206004803580820135601f81018490048402850184019095528484526200024b9436949293602493928401919081908401838280828437509497505084359550505060208301359260400135600160a060020a03169150620009619050565b348015620002e657600080fd5b50620001b962000b32565b348015620002fe57600080fd5b506200024b600160a060020a036004351660243562000b9f565b3480156200032557600080fd5b506200024b62000bd7565b3480156200033d57600080fd5b506200034862000be6565b604080519115158252519081900360200190f35b3480156200036957600080fd5b50620001df600160a060020a036004351662000bf7565b3480156200038d57600080fd5b5062000137600160a060020a036004351662000c09565b348015620003b157600080fd5b50620001df62000c81565b348015620003c957600080fd5b50620001df62000c87565b348015620003e157600080fd5b506200024b60043562000c8d565b348015620003fc57600080fd5b50620001b9600160a060020a036004351662000cb6565b3480156200042057600080fd5b50620001b9600160a060020a036004351662000cfb565b3480156200044457600080fd5b50620001b9600160a060020a036004351662000d1f565b60606009805480602002602001604051908101604052809291908181526020018280548015620004b557602002820191906000526020600020905b8154600160a060020a0316815260019091019060200180831162000496575b5050505050905090565b6000600160a060020a0384161515620004d757600080fd5b600160a060020a0384166000908152600a60205260409020541515620004fc57600080fd5b336000908152600b60209081526040808320600160a060020a0388168452600c909252822054815481106200052d57fe5b600091825260209091200154600160a060020a031614156200054e57600080fd5b83905030600160a060020a031681600160a060020a0316632986c0e56040518163ffffffff167c0100000000000000000000000000000000000000000000000000000000028152600401602060405180830381600087803b158015620005b357600080fd5b505af1158015620005c8573d6000803e3d6000fd5b505050506040513d6020811015620005df57600080fd5b5051600160a060020a031614620005f557600080fd5b83600160a060020a03168383604051808383808284378201915050925050506000604051808303816000865af191505015156200063157600080fd5b60408051600160a060020a038616815290517fe09d7761b6b107f86a1147fb54f3b8a8b920f81cec2bf9882e16f0f58bf2b88b9181900360200190a150505050565b600c6020526000908152604090205481565b600080600160a060020a03841615156200069e57600080fd5b600160a060020a0383161515620006b457600080fd5b600160a060020a0384166000908152600a60205260409020541515620006d957600080fd5b336000908152600b60209081526040808320600160a060020a0388168452600c909252822054815481106200070a57fe5b600091825260209091200154600160a060020a031614156200072b57600080fd5b83915030600160a060020a031682600160a060020a0316632986c0e56040518163ffffffff167c0100000000000000000000000000000000000000000000000000000000028152600401602060405180830381600087803b1580156200079057600080fd5b505af1158015620007a5573d6000803e3d6000fd5b505050506040513d6020811015620007bc57600080fd5b5051600160a060020a031614620007d257600080fd5b81600160a060020a031663a3fbbaae846040518263ffffffff167c01000000000000000000000000000000000000000000000000000000000281526004018082600160a060020a0316600160a060020a03168152602001915050600060405180830381600087803b1580156200084757600080fd5b505af11580156200085c573d6000803e3d6000fd5b505050600160a060020a0385166000908152600c6020908152604080832054338452600b90925290912080549193509150829081106200089857fe5b60009182526020808320909101805473ffffffffffffffffffffffffffffffffffffffff19908116909155600160a060020a03868116808552600b80855260408087208054948c16808952600c885282892086905592875260018501815587529585902090920180549093168217909255835190815233928101929092528183015290517f04dd8111702c5243bbb71b52b4f9d4b8f0bb3c448129ab39fd472b7c8182d1319181900360600190a150505050565b60015481565b600d54600160a060020a031681565b600080338630878787620009746200105d565b600160a060020a03808816825285811660408301526060820185905260808201849052821660a082015260c06020808301828152885192840192909252875160e084019189019080838360005b83811015620009db578181015183820152602001620009c1565b50505050905090810190601f16801562000a095780820380516001836020036101000a031916815260200191505b50975050505050505050604051809103906000f08015801562000a30573d6000803e3d6000fd5b5060098054600160a060020a038084166000818152600a6020818152604080842087815560018089019099557f6e1540171b6c0c960b71a7020d9f60077f6af931a8bbf590da0223dacf75c7af909701805473ffffffffffffffffffffffffffffffffffffffff199081168717909155338552600b83528185208054878752600c85528387208181559a81018255908652838620018054909116861790559284905295549086529354815192835294820193909352808301939093526060830189905286166080830152519192507f47e2d8c214459bde358667d88e947f15c2824b4cd6f920b8704586eae3ad25a3919081900360a00190a195945050505050565b62000b3c62000be6565b151562000b4857600080fd5b60008054604051600160a060020a03909116907f8be0079c531659141344cd1fd0a4f28419497f9722a3daafe3b4186f6b6457e0908390a36000805473ffffffffffffffffffffffffffffffffffffffff19169055565b600b6020528160005260406000208181548110151562000bbb57fe5b600091825260209091200154600160a060020a03169150829050565b600054600160a060020a031690565b600054600160a060020a0316331490565b600a6020526000908152604090205481565b600160a060020a0381166000908152600b602090815260409182902080548351818402810184019094528084526060939283018282801562000c7557602002820191906000526020600020905b8154600160a060020a0316815260019091019060200180831162000c56575b50505050509050919050565b60095490565b60085481565b600980548290811062000c9c57fe5b600091825260209091200154600160a060020a0316905081565b62000cc062000be6565b151562000ccc57600080fd5b600d805473ffffffffffffffffffffffffffffffffffffffff1916600160a060020a0392909216919091179055565b62000d0562000be6565b151562000d1157600080fd5b62000d1c8162000fdf565b50565b60008080600160a060020a038416151562000d3957600080fd5b600160a060020a0384166000908152600a6020526040902054151562000d5e57600080fd5b336000908152600b60209081526040808320600160a060020a0388168452600c9092528220548154811062000d8f57fe5b600091825260209091200154600160a060020a0316141562000db057600080fd5b83925030600160a060020a031683600160a060020a0316632986c0e56040518163ffffffff167c0100000000000000000000000000000000000000000000000000000000028152600401602060405180830381600087803b15801562000e1557600080fd5b505af115801562000e2a573d6000803e3d6000fd5b505050506040513d602081101562000e4157600080fd5b5051600160a060020a03161462000e5757600080fd5b82600160a060020a03166383197ef06040518163ffffffff167c0100000000000000000000000000000000000000000000000000000000028152600401600060405180830381600087803b15801562000eaf57600080fd5b505af115801562000ec4573d6000803e3d6000fd5b505050600160a060020a0385166000908152600c6020908152604080832054600a909252909120546009805492955090935091508290811062000f0357fe5b60009182526020808320909101805473ffffffffffffffffffffffffffffffffffffffff19169055600160a060020a0386168252600a81526040808320839055338352600b909152902080548390811062000f5a57fe5b60009182526020808320909101805473ffffffffffffffffffffffffffffffffffffffff19169055600160a060020a038616808352600c8252604080842093909355825190815290810184905280820183905290517f54f58abd720fd85fca71338625f22827f2e77f00c1bc457b210203060734882e9181900360600190a150505050565b600160a060020a038116151562000ff557600080fd5b60008054604051600160a060020a03808516939216917f8be0079c531659141344cd1fd0a4f28419497f9722a3daafe3b4186f6b6457e091a36000805473ffffffffffffffffffffffffffffffffffffffff1916600160a060020a0392909216919091179055565b60405161072b806200106f83390190560060806040527f302e322e3400000000000000000000000000000000000000000000000000000060009081557f686f74656c000000000000000000000000000000000000000000000000000000600655600781905560088190556009819055600a5534801561006c57600080fd5b5060405161072b38038061072b83398101604090815281516020830151918301516060840151608085015160a0860151939594909401939192909190600160a060020a03861615156100bd57600080fd5b600160a060020a03841615156100d257600080fd5b82600114156100f057600160a060020a03811615156100f057600080fd5b845115156100fd57600080fd5b60028054600160a060020a03808916600160a060020a03199283161790925560058054928716929091169190911790558451610140906003906020880190610151565b505043600455506101ec9350505050565b828054600181600116156101000203166002900490600052602060002090601f016020900481019282601f1061019257805160ff19168380011785556101bf565b828001600101855582156101bf579182015b828111156101bf5782518255916020019190600101906101a4565b506101cb9291506101cf565b5090565b6101e991905b808211156101cb57600081556001016101d5565b90565b610530806101fb6000396000f3006080604052600436106100985763ffffffff7c01000000000000000000000000000000000000000000000000000000006000350416632986c0e5811461009d578063325a19f1146100db578063481c6a751461010257806354fd4d501461011757806383197ef01461012c5780638a9b29eb146101435780639d9b5342146101cd578063a3fbbaae14610226578063cb2ef6f714610254575b600080fd5b3480156100a957600080fd5b506100b2610269565b6040805173ffffffffffffffffffffffffffffffffffffffff9092168252519081900360200190f35b3480156100e757600080fd5b506100f0610285565b60408051918252519081900360200190f35b34801561010e57600080fd5b506100b261028b565b34801561012357600080fd5b506100f06102a7565b34801561013857600080fd5b506101416102ad565b005b34801561014f57600080fd5b506101586102db565b6040805160208082528351818301528351919283929083019185019080838360005b8381101561019257818101518382015260200161017a565b50505050905090810190601f1680156101bf5780820380516001836020036101000a031916815260200191505b509250505060405180910390f35b3480156101d957600080fd5b506040805160206004803580820135601f81018490048402850184019095528484526101419436949293602493928401919081908401838280828437509497506103699650505050505050565b34801561023257600080fd5b5061014173ffffffffffffffffffffffffffffffffffffffff60043516610399565b34801561026057600080fd5b506100f06103c6565b60055473ffffffffffffffffffffffffffffffffffffffff1681565b60045481565b60025473ffffffffffffffffffffffffffffffffffffffff1681565b60005481565b60055473ffffffffffffffffffffffffffffffffffffffff1633146102d157600080fd5b6102d96103cc565b565b6003805460408051602060026001851615610100026000190190941693909304601f810184900484028201840190925281815292918301828280156103615780601f1061033657610100808354040283529160200191610361565b820191906000526020600020905b81548152906001019060200180831161034457829003601f168201915b505050505081565b60055473ffffffffffffffffffffffffffffffffffffffff16331461038d57600080fd5b610396816103e7565b50565b60055473ffffffffffffffffffffffffffffffffffffffff1633146103bd57600080fd5b6103968161040b565b60065481565b60025473ffffffffffffffffffffffffffffffffffffffff16ff5b805115156103f457600080fd5b8051610407906003906020840190610469565b5050565b73ffffffffffffffffffffffffffffffffffffffff8116151561042d57600080fd5b6002805473ffffffffffffffffffffffffffffffffffffffff191673ffffffffffffffffffffffffffffffffffffffff92909216919091179055565b828054600181600116156101000203166002900490600052602060002090601f016020900481019282601f106104aa57805160ff19168380011785556104d7565b828001600101855582156104d7579182015b828111156104d75782518255916020019190600101906104bc565b506104e39291506104e7565b5090565b61050191905b808211156104e357600081556001016104ed565b905600a165627a7a723058202a687b5682a50300d5adb77738cc1048a2cf92720742a3a4bdca9bc85b53c3680029a165627a7a72305820184032035dc6e738ab241027394cc9cc9b57ee7feaf142348a27e4dc780cf3f50029",
  "source": "pragma solidity ^0.4.24;\n\ncontract AbstractBaseContract {\n\n  // The hex-encoded version, follows the semantic standard MAJOR.MINOR.PATCH-EXTENSION\n  // It should always match the version in package.json.\n  bytes32 public version = bytes32(\"0.2.4\");\n\n  // The hex-encoded type of the contract, in all lowercase letters without any spaces.\n  // It has to be defined in each contract that uses this interface.\n  bytes32 public contractType;\n\n}\n\ncontract AbstractHotel is AbstractBaseContract {\n\n  // Who owns this Hotel and can manage it.\n  address public manager;\n\n  // Arbitrary locator of the off-chain stored hotel data\n  // This might be an HTTPS resource, IPFS hash, Swarm address...\n  // This is intentionally generic.\n  string public dataUri;\n  // Number of block when the Hotel was created\n  uint public created;\n\n  // WTIndex address\n  address public index;\n\n  /**\n   * Allows calling such methods only when msg.sender is equal\n   * to previously set index propert.y\n   */\n  modifier onlyFromIndex() {\n    require(msg.sender == index);\n    _;\n  }\n\n\n  function _editInfoImpl(string _dataUri) internal;\n  function _destroyImpl() internal;\n  function _changeManagerImpl(address _newManager) internal;\n\n  /**\n   * @dev `editInfo` Allows owner to change hotel's dataUri.\n   * @param  _dataUri New dataUri pointer of this hotel\n   */\n  function editInfo(string _dataUri) onlyFromIndex public {\n    _editInfoImpl(_dataUri);\n  }\n\n  /**\n   * @dev `destroy` allows the owner to delete the Hotel\n   */\n  function destroy() onlyFromIndex public {\n    _destroyImpl();\n  }\n\n  /**\n   * @dev Allows owner to change hotel manager.\n   * @param _newManager New manager's address\n   */\n  function changeManager(address _newManager) onlyFromIndex public {\n    _changeManagerImpl(_newManager);\n  }\n}\n  \ncontract Hotel is AbstractHotel {\n\n  bytes32 public contractType = bytes32(\"hotel\");\n\n  /**\n   * @dev Constructor.\n   * @param _manager address of hotel owner\n   * @param _dataUri pointer to hotel data\n   * @param _index originating WTIndex address\n   */\n   \n   // Additional Functionality\n    uint RoomSupply = 0;\n\n  //Zero Equals Offer, so it means someone is OFFERING this.\n  //One Euqal Request, so this is for people REQUEST this.\n\n    uint OfferOrRequest = 0;\n    uint Price = 0;\n\n    uint donationTotal = 0;\n    address[] Donators;\n\n  //Service Provider is the place the funds are transfered when The donation Total is Reached.\n    address ServiceProvider;\n\n\n\n   \n  constructor(address _manager, string _dataUri, address _index, uint _OfferOrRequest, uint _Price, address ServiceProvider) public {\n    require(_manager != address(0));\n    require(_index != address(0));\n    \n    if(_OfferOrRequest == 1){\n      require (ServiceProvider != address(0x0));\n      }\n      \n\n      \n    \n    require(bytes(_dataUri).length != 0);\n    manager = _manager;\n    index = _index;\n    dataUri = _dataUri;\n    created = block.number;\n  }\n  \n  function _editInfoImpl(string _dataUri) internal {\n    require(bytes(_dataUri).length != 0);\n    dataUri = _dataUri;\n  }\n\n  function _destroyImpl() internal {\n    selfdestruct(manager);\n  }\n\n  function _changeManagerImpl(address _newManager) internal {\n    require(_newManager != address(0));\n    manager = _newManager;\n  }\n\n}\n\ncontract Ownable {\n  address private _owner;\n\n  event OwnershipTransferred(\n    address indexed previousOwner,\n    address indexed newOwner\n  );\n\n  /**\n   * @dev The Ownable constructor sets the original `owner` of the contract to the sender\n   * account.\n   */\n  constructor() internal {\n    _owner = msg.sender;\n    emit OwnershipTransferred(address(0), _owner);\n  }\n\n  /**\n   * @return the address of the owner.\n   */\n  function owner() public view returns(address) {\n    return _owner;\n  }\n\n  /**\n   * @dev Throws if called by any account other than the owner.\n   */\n  modifier onlyOwner() {\n    require(isOwner());\n    _;\n  }\n\n  /**\n   * @return true if `msg.sender` is the owner of the contract.\n   */\n  function isOwner() public view returns(bool) {\n    return msg.sender == _owner;\n  }\n\n  /**\n   * @dev Allows the current owner to relinquish control of the contract.\n   * @notice Renouncing to ownership will leave the contract without an owner.\n   * It will not be possible to call the functions with the `onlyOwner`\n   * modifier anymore.\n   */\n  function renounceOwnership() public onlyOwner {\n    emit OwnershipTransferred(_owner, address(0));\n    _owner = address(0);\n  }\n\n  /**\n   * @dev Allows the current owner to transfer control of the contract to a newOwner.\n   * @param newOwner The address to transfer ownership to.\n   */\n  function transferOwnership(address newOwner) public onlyOwner {\n    _transferOwnership(newOwner);\n  }\n\n  /**\n   * @dev Transfers control of the contract to a newOwner.\n   * @param newOwner The address to transfer ownership to.\n   */\n  function _transferOwnership(address newOwner) internal {\n    require(newOwner != address(0));\n    emit OwnershipTransferred(_owner, newOwner);\n    _owner = newOwner;\n  }\n}\n\ncontract AbstractWTIndex is Ownable, AbstractBaseContract {\n  address[] public hotels;\n  mapping(address => uint) public hotelsIndex;\n  mapping(address => address[]) public hotelsByManager;\n  mapping(address => uint) public hotelsByManagerIndex;\n  address public LifToken;\n\n  function registerHotel(string dataUri, uint _OfferOrRequest, uint _Price, address ServiceProvider) returns(address);\n  function deleteHotel(address hotel) external;\n  function callHotel(address hotel, bytes data) external;\n  function transferHotel(address hotel, address newManager) external;\n  function getHotelsLength() view public returns (uint);\n  function getHotels() view public returns (address[]);\n  function getHotelsByManager(address manager) view public returns (address[]);\n\n  event HotelRegistered(address hotel, uint managerIndex, uint allIndex, uint _OfferOrRequest, address ServiceProvider);\n  event HotelDeleted(address hotel, uint managerIndex, uint allIndex);\n  event HotelCalled(address hotel);\n  event HotelTransferred(address hotel, address previousManager, address newManager);\n}\n\ncontract WTIndex is AbstractWTIndex {\n\n  bytes32 public contractType = bytes32(\"wtindex\");\n\n  // Array of addresses of `Hotel` contracts\n  address[] public hotels;\n  // Mapping of hotels position in the general hotel index\n  mapping(address => uint) public hotelsIndex;\n\n  // Mapping of the hotels indexed by manager's address\n  mapping(address => address[]) public hotelsByManager;\n  // Mapping of hotels position in the manager's indexed hotel index\n  mapping(address => uint) public hotelsByManagerIndex;\n\n  // Address of the LifToken contract\n  address public LifToken;\n\n  /**\n   * @dev Event triggered every time hotel is registered\n   */\n  event HotelRegistered(address hotel, uint managerIndex, uint allIndex, uint _OfferOrRequest, address ServiceProvider);\n  /**\n   * @dev Event triggered every time hotel is deleted\n   */\n  event HotelDeleted(address hotel, uint managerIndex, uint allIndex);\n  /**\n   * @dev Event triggered every time hotel is called\n   */\n  event HotelCalled(address hotel);\n\n  /**\n   * @dev Event triggered every time a hotel changes a manager.\n   */\n  event HotelTransferred(address hotel, address previousManager, address newManager);\n\n  /**\n   * @dev Constructor. Creates the `WTIndex` contract\n   */\n\tconstructor() public {\n\t\thotels.length ++;\n\t}\n\n  /**\n   * @dev `setLifToken` allows the owner of the contract to change the\n   * address of the LifToken contract\n   * @param _LifToken The new contract address\n   */\n  function setLifToken(address _LifToken) onlyOwner public {\n    LifToken = _LifToken;\n  }\n\n  /**\n   * @dev `registerHotel` Register new hotel in the index.\n   * Emits `HotelRegistered` on success.\n   * @param  dataUri Hotel's data pointer\n   */\n  function registerHotel(string dataUri, uint _OfferOrRequest, uint _Price, address ServiceProvider) returns (address hotelAddress) {\n    Hotel newHotel = new Hotel(msg.sender, dataUri, this, _OfferOrRequest, _Price, ServiceProvider);\n    hotelsIndex[newHotel] = hotels.length;\n    hotels.push(newHotel);\n    hotelsByManagerIndex[newHotel] = hotelsByManager[msg.sender].length;\n    hotelsByManager[msg.sender].push(newHotel);\n    emit HotelRegistered(newHotel, hotelsByManagerIndex[newHotel], hotelsIndex[newHotel], _OfferOrRequest, ServiceProvider);\n    return newHotel;\n\t}\n\n  /**\n   * @dev `deleteHotel` Allows a manager to delete a hotel, i. e. call destroy\n   * on the target Hotel contract. Emits `HotelDeleted` on success.\n   * @param  hotel  Hotel's address\n   */\n  function deleteHotel(address hotel) external {\n    // Ensure hotel address is valid\n    require(hotel != address(0));\n    // Ensure we know about the hotel at all\n    require(hotelsIndex[hotel] != uint(0));\n    // Ensure that the caller is the hotel's rightful owner\n    // There may actually be a hotel on index zero, that's why we use a double check\n    require(hotelsByManager[msg.sender][hotelsByManagerIndex[hotel]] != address(0));\n\n    Hotel hotelInstance = Hotel(hotel);\n    // Ensure we are calling only our own hotels\n    require(hotelInstance.index() == address(this));\n    hotelInstance.destroy();\n    \n    uint index = hotelsByManagerIndex[hotel];\n    uint allIndex = hotelsIndex[hotel];\n    delete hotels[allIndex];\n    delete hotelsIndex[hotel];\n    delete hotelsByManager[msg.sender][index];\n    delete hotelsByManagerIndex[hotel];\n    emit HotelDeleted(hotel, index, allIndex);\n\t}\n\n  /**\n   * @dev `callHotel` Call hotel in the index, the hotel can only\n   * be called by its manager. Effectively proxies a hotel call.\n   * Emits HotelCalled on success.\n   * @param  hotel Hotel's address\n   * @param  data Encoded method call to be done on Hotel contract.\n   */\n\tfunction callHotel(address hotel, bytes data) external {\n    // Ensure hotel address is valid\n    require(hotel != address(0));\n    // Ensure we know about the hotel at all\n    require(hotelsIndex[hotel] != uint(0));\n    // Ensure that the caller is the hotel's rightful owner\n    require(hotelsByManager[msg.sender][hotelsByManagerIndex[hotel]] != address(0));\n    Hotel hotelInstance = Hotel(hotel);\n    // Ensure we are calling only our own hotels\n    require(hotelInstance.index() == address(this));\n    require(hotel.call(data));\n    emit HotelCalled(hotel);\n\t}\n\n  function transferHotel(address hotel, address newManager) external {\n    // Ensure hotel address is valid\n    require(hotel != address(0));\n    // Ensure new manager is valid\n    require(newManager != address(0));\n    // Ensure we know about the hotel at all\n    require(hotelsIndex[hotel] != uint(0));\n    // Ensure that the caller is the hotel's rightful owner\n    // There may actually be a hotel on index zero, that's why we use a double check\n    require(hotelsByManager[msg.sender][hotelsByManagerIndex[hotel]] != address(0));\n\n    Hotel hotelInstance = Hotel(hotel);\n    // Ensure we are calling only our own hotels\n    require(hotelInstance.index() == address(this));\n    // Change ownership in the Hotel contract\n    hotelInstance.changeManager(newManager);\n    \n    // Detach from the old manager ...\n    uint index = hotelsByManagerIndex[hotel];\n    delete hotelsByManager[msg.sender][index];\n    // ... and attach to new manager\n    hotelsByManagerIndex[hotel] = hotelsByManager[newManager].length;\n    hotelsByManager[newManager].push(hotel);\n    emit HotelTransferred(hotel, msg.sender, newManager);\n  }\n\n  /**\n   * @dev `getHotelsLength` get the length of the `hotels` array\n   * @return {\" \": \"Length of the hotels array. Might contain zero addresses.\"}\n   */\n  function getHotelsLength() view public returns (uint) {\n    return hotels.length;\n  }\n\n  /**\n   * @dev `getHotels` get `hotels` array\n   * @return {\" \": \"Array of hotel addresses. Might contain zero addresses.\"}\n   */\n  function getHotels() view public returns (address[]) {\n    return hotels;\n  }\n\n  /**\n   * @dev `getHotelsByManager` get all the hotels belonging to one manager\n   * @param  manager Manager address\n   * @return {\" \": \"Array of hotels belonging to one manager. Might contain zero addresses.\"}\n   */\n\tfunction getHotelsByManager(address manager) view public returns (address[]) {\n\t\treturn hotelsByManager[manager];\n\t}\n\n}",
  "sourcePath": "/Users/dennisonbertram/Documents/StatusHack3/contracts/WTIndex.sol",
  "compiler": {
    "name": "solc",
    "version": "0.4.24+commit.e67f0147.Emscripten.clang"
  },
  "schemaVersion": "2.0.1",
  "updatedAt": "2018-10-26T21:35:28.641Z"
}